{
  "contractName": "Sender_Request",
  "abi": [
    {
      "anonymous": false,
      "inputs": [
        {
          "indexed": false,
          "internalType": "uint256",
          "name": "time",
          "type": "uint256"
        }
      ],
      "name": "return_tx_time",
      "type": "event"
    },
    {
      "constant": false,
      "inputs": [
        {
          "internalType": "uint256",
          "name": "dt",
          "type": "uint256"
        },
        {
          "internalType": "string",
          "name": "dsl",
          "type": "string"
        },
        {
          "internalType": "string",
          "name": "del",
          "type": "string"
        },
        {
          "internalType": "string",
          "name": "rn",
          "type": "string"
        },
        {
          "internalType": "string",
          "name": "rc",
          "type": "string"
        },
        {
          "internalType": "uint256",
          "name": "sv",
          "type": "uint256"
        },
        {
          "internalType": "bool",
          "name": "isUr",
          "type": "bool"
        },
        {
          "internalType": "uint256",
          "name": "bs",
          "type": "uint256"
        }
      ],
      "name": "set_order_info",
      "outputs": [],
      "payable": false,
      "stateMutability": "nonpayable",
      "type": "function"
    },
    {
      "constant": true,
      "inputs": [
        {
          "internalType": "uint256",
          "name": "time",
          "type": "uint256"
        }
      ],
      "name": "get_order_info",
      "outputs": [
        {
          "internalType": "uint256",
          "name": "",
          "type": "uint256"
        },
        {
          "internalType": "string",
          "name": "",
          "type": "string"
        },
        {
          "internalType": "string",
          "name": "",
          "type": "string"
        },
        {
          "internalType": "string",
          "name": "",
          "type": "string"
        },
        {
          "internalType": "string",
          "name": "",
          "type": "string"
        },
        {
          "internalType": "uint256",
          "name": "",
          "type": "uint256"
        },
        {
          "internalType": "bool",
          "name": "",
          "type": "bool"
        },
        {
          "internalType": "uint256",
          "name": "",
          "type": "uint256"
        }
      ],
      "payable": false,
      "stateMutability": "view",
      "type": "function"
    }
  ],
  "bytecode": "0x608060405234801561001057600080fd5b50610b28806100206000396000f3fe608060405234801561001057600080fd5b50600436106100365760003560e01c8063676d62181461003b578063e3b749ba146102e6575b600080fd5b6102e4600480360361010081101561005257600080fd5b81019080803590602001909291908035906020019064010000000081111561007957600080fd5b82018360208201111561008b57600080fd5b803590602001918460018302840111640100000000831117156100ad57600080fd5b91908080601f016020809104026020016040519081016040528093929190818152602001838380828437600081840152601f19601f8201169050808301925050505050505091929192908035906020019064010000000081111561011057600080fd5b82018360208201111561012257600080fd5b8035906020019184600183028401116401000000008311171561014457600080fd5b91908080601f016020809104026020016040519081016040528093929190818152602001838380828437600081840152601f19601f820116905080830192505050505050509192919290803590602001906401000000008111156101a757600080fd5b8201836020820111156101b957600080fd5b803590602001918460018302840111640100000000831117156101db57600080fd5b91908080601f016020809104026020016040519081016040528093929190818152602001838380828437600081840152601f19601f8201169050808301925050505050505091929192908035906020019064010000000081111561023e57600080fd5b82018360208201111561025057600080fd5b8035906020019184600183028401116401000000008311171561027257600080fd5b91908080601f016020809104026020016040519081016040528093929190818152602001838380828437600081840152601f19601f82011690508083019250505050505050919291929080359060200190929190803515159060200190929190803590602001909291905050506104f1565b005b610312600480360360208110156102fc57600080fd5b8101908080359060200190929190505050610684565b60405180898152602001806020018060200180602001806020018881526020018715151515815260200186815260200185810385528c818151815260200191508051906020019080838360005b8381101561037a57808201518184015260208101905061035f565b50505050905090810190601f1680156103a75780820380516001836020036101000a031916815260200191505b5085810384528b818151815260200191508051906020019080838360005b838110156103e05780820151818401526020810190506103c5565b50505050905090810190601f16801561040d5780820380516001836020036101000a031916815260200191505b5085810383528a818151815260200191508051906020019080838360005b8381101561044657808201518184015260208101905061042b565b50505050905090810190601f1680156104735780820380516001836020036101000a031916815260200191505b50858103825289818151815260200191508051906020019080838360005b838110156104ac578082015181840152602081019050610491565b50505050905090810190601f1680156104d95780820380516001836020036101000a031916815260200191505b509c5050505050505050505050505060405180910390f35b6104f9610a07565b6040518061010001604052808a815260200185815260200184151581526020018381526020018981526020018881526020018781526020018681525090506000429050816000803373ffffffffffffffffffffffffffffffffffffffff1673ffffffffffffffffffffffffffffffffffffffff1681526020019081526020016000206000838152602001908152602001600020600082015181600001556020820151816001015560408201518160020160006101000a81548160ff0219169083151502179055506060820151816003015560808201518160040190805190602001906105e6929190610a4e565b5060a0820151816005019080519060200190610603929190610a4e565b5060c0820151816006019080519060200190610620929190610a4e565b5060e082015181600701908051906020019061063d929190610a4e565b509050507fa3920f6cca4732a20ba506190c86f72a087b405d50975c9aace732588a0c3eb4816040518082815260200191505060405180910390a150505050505050505050565b60006060806060806000806000610699610a07565b6000803373ffffffffffffffffffffffffffffffffffffffff1673ffffffffffffffffffffffffffffffffffffffff16815260200190815260200160002060008b81526020019081526020016000206040518061010001604052908160008201548152602001600182015481526020016002820160009054906101000a900460ff1615151515815260200160038201548152602001600482018054600181600116156101000203166002900480601f0160208091040260200160405190810160405280929190818152602001828054600181600116156101000203166002900480156107c65780601f1061079b576101008083540402835291602001916107c6565b820191906000526020600020905b8154815290600101906020018083116107a957829003601f168201915b50505050508152602001600582018054600181600116156101000203166002900480601f0160208091040260200160405190810160405280929190818152602001828054600181600116156101000203166002900480156108685780601f1061083d57610100808354040283529160200191610868565b820191906000526020600020905b81548152906001019060200180831161084b57829003601f168201915b50505050508152602001600682018054600181600116156101000203166002900480601f01602080910402602001604051908101604052809291908181526020018280546001816001161561010002031660029004801561090a5780601f106108df5761010080835404028352916020019161090a565b820191906000526020600020905b8154815290600101906020018083116108ed57829003601f168201915b50505050508152602001600782018054600181600116156101000203166002900480601f0160208091040260200160405190810160405280929190818152602001828054600181600116156101000203166002900480156109ac5780601f10610981576101008083540402835291602001916109ac565b820191906000526020600020905b81548152906001019060200180831161098f57829003601f168201915b5050505050815250509050806000015181608001518260a001518360c001518460e001518560200151866040015187606001518696508595508494508393509850985098509850985098509850985050919395975091939597565b604051806101000160405280600081526020016000815260200160001515815260200160008152602001606081526020016060815260200160608152602001606081525090565b828054600181600116156101000203166002900490600052602060002090601f016020900481019282601f10610a8f57805160ff1916838001178555610abd565b82800160010185558215610abd579182015b82811115610abc578251825591602001919060010190610aa1565b5b509050610aca9190610ace565b5090565b610af091905b80821115610aec576000816000905550600101610ad4565b5090565b9056fea265627a7a7231582078e8f2850512a97a49f1a524b2bdf58d14ae651f348fca941f52e4f2042e57a964736f6c634300050c0032",
  "source": "pragma solidity ^0.5.0;\n\ncontract Sender_Request {\n    mapping(address => mapping(uint256 => Order)) User;\n\n    event return_tx_time(uint256 time);\n\n    struct Order {\n        uint256 delivery_time; //寄送時間\n        uint256 service; //選擇服務\n        bool isUrgent; //急件是否\n        uint256 boxSize; //貨品大小\n        string delivery_start_location; //送貨地點\n        string delivery_end_location; //送貨終點\n        string recipient_name; //收件人姓名\n        string recipient_contact; //收件人聯絡方式\n    }\n\n    function set_order_info(\n        uint256 dt,\n        string memory dsl,\n        string memory del,\n        string memory rn,\n        string memory rc,\n        uint256 sv,\n        bool isUr,\n        uint256 bs\n    ) public {\n        Order memory order =\n            Order({\n                delivery_time: dt,\n                delivery_start_location: dsl,\n                delivery_end_location: del,\n                recipient_name: rn,\n                recipient_contact: rc,\n                service: sv,\n                isUrgent: isUr,\n                boxSize: bs\n            });\n\n        uint256 time = now;\n\n        User[msg.sender][time] = order;\n\n        emit return_tx_time(time);\n    }\n\n    function get_order_info(uint256 time)\n        public\n        view\n        returns (\n            uint256,\n            string memory,\n            string memory,\n            string memory,\n            string memory,\n            uint256,\n            bool,\n            uint256\n        )\n    {\n        Order memory order = User[msg.sender][time];\n\n        return (\n            order.delivery_time,\n            order.delivery_start_location,\n            order.delivery_end_location,\n            order.recipient_name,\n            order.recipient_contact,\n            order.service,\n            order.isUrgent,\n            order.boxSize\n        );\n    }\n}\n",
  "sourcePath": "/Users/hongwei/Documents/Project/Crowd-Logistics-Platform/contracts/Sender_request.sol",
  "compiler": {
    "name": "solc",
    "version": "0.5.12+commit.7709ece9.Emscripten.clang"
  },
  "schemaVersion": "3.0.20",
  "updatedAt": "2021-03-29T14:57:40.357Z",
  "devdoc": {
    "methods": {}
  },
  "userdoc": {
    "methods": {}
  }
}