{
  "contractName": "Sender_Auth",
  "abi": [
    {
      "inputs": [],
      "payable": false,
      "stateMutability": "nonpayable",
      "type": "constructor"
    },
    {
      "anonymous": false,
      "inputs": [
        {
          "indexed": false,
          "internalType": "bool",
          "name": "valid",
          "type": "bool"
        }
      ],
      "name": "verification_status",
      "type": "event"
    },
    {
      "constant": false,
      "inputs": [
        {
          "internalType": "string",
          "name": "_name",
          "type": "string"
        },
        {
          "internalType": "uint256",
          "name": "_sex",
          "type": "uint256"
        },
        {
          "internalType": "uint256",
          "name": "btd",
          "type": "uint256"
        },
        {
          "internalType": "string",
          "name": "pn",
          "type": "string"
        },
        {
          "internalType": "string",
          "name": "_email",
          "type": "string"
        },
        {
          "internalType": "string",
          "name": "_cid",
          "type": "string"
        },
        {
          "internalType": "string",
          "name": "_psd",
          "type": "string"
        },
        {
          "internalType": "string",
          "name": "_psd_hint",
          "type": "string"
        }
      ],
      "name": "set_sender_data",
      "outputs": [],
      "payable": false,
      "stateMutability": "nonpayable",
      "type": "function"
    },
    {
      "constant": false,
      "inputs": [],
      "name": "verify_info",
      "outputs": [],
      "payable": false,
      "stateMutability": "nonpayable",
      "type": "function"
    },
    {
      "constant": false,
      "inputs": [
        {
          "internalType": "string",
          "name": "_cid",
          "type": "string"
        }
      ],
      "name": "verify_cid",
      "outputs": [
        {
          "internalType": "bool",
          "name": "valid",
          "type": "bool"
        }
      ],
      "payable": false,
      "stateMutability": "nonpayable",
      "type": "function"
    },
    {
      "constant": false,
      "inputs": [
        {
          "internalType": "string",
          "name": "_email",
          "type": "string"
        }
      ],
      "name": "verify_email",
      "outputs": [
        {
          "internalType": "bool",
          "name": "valid",
          "type": "bool"
        }
      ],
      "payable": false,
      "stateMutability": "nonpayable",
      "type": "function"
    },
    {
      "constant": true,
      "inputs": [
        {
          "internalType": "string",
          "name": "_psd",
          "type": "string"
        },
        {
          "internalType": "string",
          "name": "_psd_hint",
          "type": "string"
        }
      ],
      "name": "verify_psd",
      "outputs": [
        {
          "internalType": "bool",
          "name": "valid",
          "type": "bool"
        }
      ],
      "payable": false,
      "stateMutability": "view",
      "type": "function"
    }
  ],
  "bytecode": "0x608060405234801561001057600080fd5b50610d7c806100206000396000f3fe608060405234801561001057600080fd5b50600436106100575760003560e01c80632cbbc0d21461005c578063364536d1146101c65780633a77fbcd14610299578063f62a1d92146102a3578063ff043b8814610376575b600080fd5b6101ac6004803603604081101561007257600080fd5b810190808035906020019064010000000081111561008f57600080fd5b8201836020820111156100a157600080fd5b803590602001918460018302840111640100000000831117156100c357600080fd5b91908080601f016020809104026020016040519081016040528093929190818152602001838380828437600081840152601f19601f8201169050808301925050505050505091929192908035906020019064010000000081111561012657600080fd5b82018360208201111561013857600080fd5b8035906020019184600183028401116401000000008311171561015a57600080fd5b91908080601f016020809104026020016040519081016040528093929190818152602001838380828437600081840152601f19601f820116905080830192505050505050509192919290505050610739565b604051808215151515815260200191505060405180910390f35b61027f600480360360208110156101dc57600080fd5b81019080803590602001906401000000008111156101f957600080fd5b82018360208201111561020b57600080fd5b8035906020019184600183028401116401000000008311171561022d57600080fd5b91908080601f016020809104026020016040519081016040528093929190818152602001838380828437600081840152601f19601f820116905080830192505050505050509192919290505050610773565b604051808215151515815260200191505060405180910390f35b6102a1610798565b005b61035c600480360360208110156102b957600080fd5b81019080803590602001906401000000008111156102d657600080fd5b8201836020820111156102e857600080fd5b8035906020019184600183028401116401000000008311171561030a57600080fd5b91908080601f016020809104026020016040519081016040528093929190818152602001838380828437600081840152601f19601f820116905080830192505050505050509192919290505050610bdc565b604051808215151515815260200191505060405180910390f35b610737600480360361010081101561038d57600080fd5b81019080803590602001906401000000008111156103aa57600080fd5b8201836020820111156103bc57600080fd5b803590602001918460018302840111640100000000831117156103de57600080fd5b91908080601f016020809104026020016040519081016040528093929190818152602001838380828437600081840152601f19601f82011690508083019250505050505050919291929080359060200190929190803590602001909291908035906020019064010000000081111561045557600080fd5b82018360208201111561046757600080fd5b8035906020019184600183028401116401000000008311171561048957600080fd5b91908080601f016020809104026020016040519081016040528093929190818152602001838380828437600081840152601f19601f820116905080830192505050505050509192919290803590602001906401000000008111156104ec57600080fd5b8201836020820111156104fe57600080fd5b8035906020019184600183028401116401000000008311171561052057600080fd5b91908080601f016020809104026020016040519081016040528093929190818152602001838380828437600081840152601f19601f8201169050808301925050505050505091929192908035906020019064010000000081111561058357600080fd5b82018360208201111561059557600080fd5b803590602001918460018302840111640100000000831117156105b757600080fd5b91908080601f016020809104026020016040519081016040528093929190818152602001838380828437600081840152601f19601f8201169050808301925050505050505091929192908035906020019064010000000081111561061a57600080fd5b82018360208201111561062c57600080fd5b8035906020019184600183028401116401000000008311171561064e57600080fd5b91908080601f016020809104026020016040519081016040528093929190818152602001838380828437600081840152601f19601f820116905080830192505050505050509192919290803590602001906401000000008111156106b157600080fd5b8201836020820111156106c357600080fd5b803590602001918460018302840111640100000000831117156106e557600080fd5b91908080601f016020809104026020016040519081016040528093929190818152602001838380828437600081840152601f19601f820116905080830192505050505050509192919290505050610c00565b005b600080835190506000835190506008821080156107565750600081145b156107665760009250505061076d565b6001925050505b92915050565b60008082519050600a81101561078d576000915050610793565b60019150505b919050565b6000808054600181600116156101000203166002900490501415610824576040517f08c379a000000000000000000000000000000000000000000000000000000000815260040180806020018281038252600e8152602001807f6e616d6520697320656d7074792100000000000000000000000000000000000081525060200191505060405180910390fd5b6000600380546001816001161561010002031660029004905014156108b1576040517f08c379a00000000000000000000000000000000000000000000000000000000081526004018080602001828103825260168152602001807f70686f6e65206e756d62657220697320656d707479210000000000000000000081525060200191505060405180910390fd5b600061095660048054600181600116156101000203166002900480601f01602080910402602001604051908101604052809291908181526020018280546001816001161561010002031660029004801561094c5780601f106109215761010080835404028352916020019161094c565b820191906000526020600020905b81548152906001019060200180831161092f57829003601f168201915b5050505050610773565b905060006109fd60058054600181600116156101000203166002900480601f0160208091040260200160405190810160405280929190818152602001828054600181600116156101000203166002900480156109f35780601f106109c8576101008083540402835291602001916109f3565b820191906000526020600020905b8154815290600101906020018083116109d657829003601f168201915b5050505050610bdc565b90506000610b3f60068054600181600116156101000203166002900480601f016020809104026020016040519081016040528092919081815260200182805460018160011615610100020316600290048015610a9a5780601f10610a6f57610100808354040283529160200191610a9a565b820191906000526020600020905b815481529060010190602001808311610a7d57829003601f168201915b505050505060078054600181600116156101000203166002900480601f016020809104026020016040519081016040528092919081815260200182805460018160011615610100020316600290048015610b355780601f10610b0a57610100808354040283529160200191610b35565b820191906000526020600020905b815481529060010190602001808311610b1857829003601f168201915b5050505050610739565b9050828015610b4b5750815b8015610b545750805b15610b9a577f66ee4723267b8f8f3a424b10d6b5858470af0bfbffdd5b8ab187f2ab9bf679536001604051808215151515815260200191505060405180910390a1610bd7565b7f66ee4723267b8f8f3a424b10d6b5858470af0bfbffdd5b8ab187f2ab9bf679536000604051808215151515815260200191505060405180910390a15b505050565b60008082519050600a8114610bf5576000915050610bfb565b60019150505b919050565b8760009080519060200190610c16929190610ca2565b5086600181905550856002819055508460039080519060200190610c3b929190610ca2565b508360049080519060200190610c52929190610ca2565b508260059080519060200190610c69929190610ca2565b508160069080519060200190610c80929190610ca2565b508060079080519060200190610c97929190610ca2565b505050505050505050565b828054600181600116156101000203166002900490600052602060002090601f016020900481019282601f10610ce357805160ff1916838001178555610d11565b82800160010185558215610d11579182015b82811115610d10578251825591602001919060010190610cf5565b5b509050610d1e9190610d22565b5090565b610d4491905b80821115610d40576000816000905550600101610d28565b5090565b9056fea265627a7a723158209c03cfa68b7bfba245959f621bfdddcd3f259b81f54c324426ee3e9dbd133b8564736f6c634300050c0032",
  "source": "pragma solidity ^ 0.5 .0;\n// import \"github.com/provable-things/ethereum-api/provableAPI.sol\";\n\n\ncontract Sender_Auth {\n\tstring name; //姓名\n\tuint sex; //生理性別\n\tuint birthday; //生日\n\tstring phone_number; //電話號碼\n\tstring email; //電子郵件\n\tstring cid; //身分證字號\n\tstring psd; //密碼\n\tstring psd_hint; //密碼提示\n\n\tevent verification_status(bool valid);\n\n\n\tconstructor() public {}\n\n\tfunction set_sender_data(\n\t\tstring memory _name, uint _sex, uint btd, string memory pn, string memory _email,\n\t\tstring memory _cid, string memory _psd, string memory _psd_hint) public {\n\n\t\tname = _name;\n\t\tsex = _sex;\n\t\tbirthday = btd;\n\t\tphone_number = pn;\n\t\temail = _email;\n\t\tcid = _cid;\n\t\tpsd = _psd;\n\t\tpsd_hint = _psd_hint;\n\t}\n\n\tfunction verify_info() public {\n\n\t\trequire(bytes(name).length != 0, \"name is empty!\"); //姓名不為空\n\t\trequire(bytes(phone_number).length != 0, \"phone number is empty!\"); //電話不可為空\n\n\t\tbool email_result = verify_email(email); //驗證信箱規則\n\t\tbool cid_result = verify_cid(cid); //驗證身分證字號\n\t\tbool psd_result = verify_psd(psd, psd_hint); //驗證密碼規則\n\n\t\tif (email_result && cid_result && psd_result) {\n\t\t\temit verification_status(true); //回傳審核成功\n\t\t} else {\n\t\t\temit verification_status(false); //回傳審核失敗\n\t\t}\n\t}\n\n\tfunction verify_cid(string memory _cid) public returns(bool valid) {\n\t\tuint len = bytes(_cid).length;\n\t\tif (len != 10) {\n\t\t\treturn false;\n\t\t} else {\n\t\t\treturn true;\n\t\t}\n\t}\n\n\tfunction verify_email(string memory _email) public returns(bool valid) {\n\t\tuint len = bytes(_email).length;\n\t\tif (len < 10) {\n\t\t\treturn false;\n\t\t} else {\n\t\t\treturn true;\n\t\t}\n\t}\n\n\tfunction verify_psd(string memory _psd, string memory _psd_hint) public view returns(bool valid) {\n\t\tuint len1 = bytes(_psd).length;\n\t\tuint len2 = bytes(_psd_hint).length;\n\n\t\tif (len1 < 8 && len2 == 0) {\n\t\t\treturn false;\n\t\t} else {\n\t\t\treturn true;\n\t\t}\n\t}\n\n\n}",
  "sourcePath": "/Users/hongwei/Documents/BlockChain/Ethereum/Crowd-Logistics-Platform/contracts/Sender_Auth.sol",
  "compiler": {
    "name": "solc",
    "version": "0.5.12+commit.7709ece9.Emscripten.clang"
  },
  "schemaVersion": "3.0.20",
  "updatedAt": "2020-02-05T01:28:11.733Z",
  "networkType": "ethereum",
  "devdoc": {
    "methods": {}
  },
  "userdoc": {
    "methods": {}
  }
}