{
  "contractName": "Sender",
  "abi": [
    {
      "inputs": [],
      "payable": false,
      "stateMutability": "nonpayable",
      "type": "constructor"
    },
    {
      "anonymous": false,
      "inputs": [
        {
          "indexed": false,
          "name": "",
          "type": "address"
        },
        {
          "indexed": false,
          "name": "",
          "type": "uint256"
        }
      ],
      "name": "order_time",
      "type": "event"
    },
    {
      "constant": false,
      "inputs": [
        {
          "name": "sender",
          "type": "address"
        },
        {
          "name": "_dTime",
          "type": "uint256"
        },
        {
          "name": "_dlStart",
          "type": "string"
        },
        {
          "name": "_dlEnd",
          "type": "string"
        },
        {
          "name": "_rName",
          "type": "string"
        },
        {
          "name": "_rContact",
          "type": "string"
        },
        {
          "name": "_service",
          "type": "uint256"
        },
        {
          "name": "_isUrgent",
          "type": "bool"
        },
        {
          "name": "_boxSize",
          "type": "uint256"
        }
      ],
      "name": "set_order_info",
      "outputs": [
        {
          "name": "",
          "type": "uint256"
        }
      ],
      "payable": false,
      "stateMutability": "nonpayable",
      "type": "function"
    },
    {
      "constant": true,
      "inputs": [
        {
          "name": "sender",
          "type": "address"
        },
        {
          "name": "time",
          "type": "uint256"
        }
      ],
      "name": "get_order_info",
      "outputs": [
        {
          "name": "",
          "type": "uint256"
        },
        {
          "name": "",
          "type": "string"
        },
        {
          "name": "",
          "type": "string"
        },
        {
          "name": "",
          "type": "string"
        },
        {
          "name": "",
          "type": "string"
        },
        {
          "name": "",
          "type": "uint256"
        },
        {
          "name": "",
          "type": "bool"
        },
        {
          "name": "",
          "type": "uint256"
        }
      ],
      "payable": false,
      "stateMutability": "view",
      "type": "function"
    }
  ],
  "bytecode": "0x608060405234801561001057600080fd5b50610bb1806100206000396000f3fe608060405234801561001057600080fd5b50600436106100365760003560e01c80637e65191b1461003b578063fd9da4b714610266575b600080fd5b6100876004803603604081101561005157600080fd5b81019080803573ffffffffffffffffffffffffffffffffffffffff16906020019092919080359060200190929190505050610545565b60405180898152602001806020018060200180602001806020018881526020018715151515815260200186815260200185810385528c818151815260200191508051906020019080838360005b838110156100ef5780820151818401526020810190506100d4565b50505050905090810190601f16801561011c5780820380516001836020036101000a031916815260200191505b5085810384528b818151815260200191508051906020019080838360005b8381101561015557808201518184015260208101905061013a565b50505050905090810190601f1680156101825780820380516001836020036101000a031916815260200191505b5085810383528a818151815260200191508051906020019080838360005b838110156101bb5780820151818401526020810190506101a0565b50505050905090810190601f1680156101e85780820380516001836020036101000a031916815260200191505b50858103825289818151815260200191508051906020019080838360005b83811015610221578082015181840152602081019050610206565b50505050905090810190601f16801561024e5780820380516001836020036101000a031916815260200191505b509c5050505050505050505050505060405180910390f35b61052f600480360361012081101561027d57600080fd5b81019080803573ffffffffffffffffffffffffffffffffffffffff16906020019092919080359060200190929190803590602001906401000000008111156102c457600080fd5b8201836020820111156102d657600080fd5b803590602001918460018302840111640100000000831117156102f857600080fd5b91908080601f016020809104026020016040519081016040528093929190818152602001838380828437600081840152601f19601f8201169050808301925050505050505091929192908035906020019064010000000081111561035b57600080fd5b82018360208201111561036d57600080fd5b8035906020019184600183028401116401000000008311171561038f57600080fd5b91908080601f016020809104026020016040519081016040528093929190818152602001838380828437600081840152601f19601f820116905080830192505050505050509192919290803590602001906401000000008111156103f257600080fd5b82018360208201111561040457600080fd5b8035906020019184600183028401116401000000008311171561042657600080fd5b91908080601f016020809104026020016040519081016040528093929190818152602001838380828437600081840152601f19601f8201169050808301925050505050505091929192908035906020019064010000000081111561048957600080fd5b82018360208201111561049b57600080fd5b803590602001918460018302840111640100000000831117156104bd57600080fd5b91908080601f016020809104026020016040519081016040528093929190818152602001838380828437600081840152601f19601f82011690508083019250505050505050919291929080359060200190929190803515159060200190929190803590602001909291905050506108ca565b6040518082815260200191505060405180910390f35b6000606080606080600080600061055a610a99565b6000808c73ffffffffffffffffffffffffffffffffffffffff1673ffffffffffffffffffffffffffffffffffffffff16815260200190815260200160002060008b81526020019081526020016000206040518061010001604052908160008201548152602001600182015481526020016002820160009054906101000a900460ff1615151515815260200160038201548152602001600482018054600181600116156101000203166002900480601f0160208091040260200160405190810160405280929190818152602001828054600181600116156101000203166002900480156106875780601f1061065c57610100808354040283529160200191610687565b820191906000526020600020905b81548152906001019060200180831161066a57829003601f168201915b50505050508152602001600582018054600181600116156101000203166002900480601f0160208091040260200160405190810160405280929190818152602001828054600181600116156101000203166002900480156107295780601f106106fe57610100808354040283529160200191610729565b820191906000526020600020905b81548152906001019060200180831161070c57829003601f168201915b50505050508152602001600682018054600181600116156101000203166002900480601f0160208091040260200160405190810160405280929190818152602001828054600181600116156101000203166002900480156107cb5780601f106107a0576101008083540402835291602001916107cb565b820191906000526020600020905b8154815290600101906020018083116107ae57829003601f168201915b50505050508152602001600782018054600181600116156101000203166002900480601f01602080910402602001604051908101604052809291908181526020018280546001816001161561010002031660029004801561086d5780601f106108425761010080835404028352916020019161086d565b820191906000526020600020905b81548152906001019060200180831161085057829003601f168201915b5050505050815250509050806000015181608001518260a001518360c001518460e0015185602001518660400151876060015186965085955084945083935098509850985098509850985098509850509295985092959890939650565b60006108d4610a99565b6040518061010001604052808b815260200186815260200185151581526020018481526020018a81526020018981526020018881526020018781525090506000429050816000808e73ffffffffffffffffffffffffffffffffffffffff1673ffffffffffffffffffffffffffffffffffffffff1681526020019081526020016000206000838152602001908152602001600020600082015181600001556020820151816001015560408201518160020160006101000a81548160ff0219169083151502179055506060820151816003015560808201518160040190805190602001906109c1929190610ae0565b5060a08201518160050190805190602001906109de929190610ae0565b5060c08201518160060190805190602001906109fb929190610ae0565b5060e0820151816007019080519060200190610a18929190610ae0565b509050507f418607f513a820c697ec913079cc1b35f2f0cc0743590da4d87ad83be4e560bc8c82604051808373ffffffffffffffffffffffffffffffffffffffff1673ffffffffffffffffffffffffffffffffffffffff1681526020018281526020019250505060405180910390a180925050509998505050505050505050565b604051806101000160405280600081526020016000815260200160001515815260200160008152602001606081526020016060815260200160608152602001606081525090565b828054600181600116156101000203166002900490600052602060002090601f016020900481019282601f10610b2157805160ff1916838001178555610b4f565b82800160010185558215610b4f579182015b82811115610b4e578251825591602001919060010190610b33565b5b509050610b5c9190610b60565b5090565b610b8291905b80821115610b7e576000816000905550600101610b66565b5090565b9056fea165627a7a7230582033b30e039f5160c46243a036aa30565ab7236d39d05b359e43c89b7081e4702c0029",
  "source": "pragma solidity ^0.5.0;\r\n\r\n\r\ncontract Sender {\r\n    \r\n  event order_time(address, uint); //交易時間\r\n\r\n  mapping(address => mapping(uint => Order)) User; //某個使用者不同時間的訂單\r\n\r\n  constructor() public {\r\n    \r\n  }\r\n\r\n  struct Order {\r\n    uint dTime; //寄送時間\r\n    uint service; //選擇服務\r\n    bool isUrgent; //急件是否\r\n    uint boxSize; //貨品大小\r\n    string dlStart; //送貨地點\r\n    string dlEnd; //送貨終點\r\n    string rName; //收件人姓名\r\n    string rContact; //收件人聯絡方式\r\n  }\r\n\r\n  function set_order_info(\r\n    address sender, \r\n    uint _dTime,\r\n    string memory _dlStart,\r\n    string memory _dlEnd,\r\n    string memory _rName,\r\n    string memory _rContact,\r\n    uint _service,\r\n    bool _isUrgent,\r\n    uint _boxSize\r\n  ) public returns(uint){\r\n\r\n    Order memory order = Order({\r\n      dTime: _dTime,\r\n      dlStart: _dlStart,\r\n      dlEnd: _dlEnd,\r\n      rName: _rName,\r\n      rContact: _rContact,\r\n      service: _service,\r\n      isUrgent: _isUrgent,\r\n      boxSize: _boxSize\r\n    });\r\n\r\n    uint time = now;\r\n\r\n    User[sender][time] = order;\r\n    \r\n    emit order_time(sender, time);\r\n\r\n    return time;\r\n  }\r\n\r\n  function get_order_info(address sender, uint time) public view returns(\r\n    uint,\r\n    string memory,\r\n    string memory,\r\n    string memory,\r\n    string memory,\r\n    uint,\r\n    bool,\r\n    uint\r\n  ) {\r\n\r\n    Order memory order = User[sender][time];\r\n\r\n    return (\r\n      order.dTime,\r\n      order.dlStart,\r\n      order.dlEnd,\r\n      order.rName,\r\n      order.rContact,\r\n      order.service,\r\n      order.isUrgent,\r\n      order.boxSize\r\n    );\r\n  }\r\n\r\n}\r\n",
  "sourcePath": "D:\\Hongwei\\BlockChain\\Ethereum\\Dapp\\Crowd-Logistics-Platform\\contracts\\Sender.sol",
  "compiler": {
    "name": "solc",
    "version": "0.5.8+commit.23d335f2.Emscripten.clang"
  },
  "schemaVersion": "3.0.16",
  "updatedAt": "2020-02-19T05:25:26.918Z",
  "devdoc": {
    "methods": {}
  },
  "userdoc": {
    "methods": {}
  }
}