{
  "contractName": "Transaction",
  "abi": [
    {
      "constant": true,
      "inputs": [],
      "name": "Store",
      "outputs": [
        {
          "name": "",
          "type": "address"
        }
      ],
      "payable": false,
      "stateMutability": "view",
      "type": "function"
    },
    {
      "inputs": [
        {
          "name": "addr",
          "type": "address"
        }
      ],
      "payable": false,
      "stateMutability": "nonpayable",
      "type": "constructor"
    },
    {
      "anonymous": false,
      "inputs": [
        {
          "indexed": false,
          "name": "",
          "type": "address"
        },
        {
          "indexed": false,
          "name": "",
          "type": "uint256"
        }
      ],
      "name": "order_time",
      "type": "event"
    },
    {
      "anonymous": false,
      "inputs": [
        {
          "indexed": false,
          "name": "",
          "type": "address"
        },
        {
          "indexed": false,
          "name": "",
          "type": "address"
        }
      ],
      "name": "get_match",
      "type": "event"
    },
    {
      "anonymous": false,
      "inputs": [
        {
          "indexed": false,
          "name": "",
          "type": "address"
        }
      ],
      "name": "search_drivers",
      "type": "event"
    },
    {
      "anonymous": false,
      "inputs": [
        {
          "indexed": false,
          "name": "",
          "type": "address"
        }
      ],
      "name": "notice_drivers",
      "type": "event"
    },
    {
      "constant": false,
      "inputs": [
        {
          "name": "sender",
          "type": "address"
        },
        {
          "name": "_dTime",
          "type": "uint256"
        },
        {
          "name": "_dlStart",
          "type": "string"
        },
        {
          "name": "_dlEnd",
          "type": "string"
        },
        {
          "name": "_rName",
          "type": "string"
        },
        {
          "name": "_rContact",
          "type": "string"
        },
        {
          "name": "_service",
          "type": "uint256"
        },
        {
          "name": "_isUrgent",
          "type": "bool"
        },
        {
          "name": "_boxSize",
          "type": "uint256"
        }
      ],
      "name": "start_transaction",
      "outputs": [],
      "payable": false,
      "stateMutability": "nonpayable",
      "type": "function"
    },
    {
      "constant": true,
      "inputs": [],
      "name": "get_sender",
      "outputs": [
        {
          "name": "",
          "type": "address[]"
        }
      ],
      "payable": false,
      "stateMutability": "view",
      "type": "function"
    },
    {
      "constant": true,
      "inputs": [
        {
          "name": "sender",
          "type": "address"
        }
      ],
      "name": "get_drivers",
      "outputs": [
        {
          "name": "",
          "type": "address[]"
        }
      ],
      "payable": false,
      "stateMutability": "view",
      "type": "function"
    },
    {
      "constant": false,
      "inputs": [
        {
          "name": "sender",
          "type": "address"
        }
      ],
      "name": "push_sender",
      "outputs": [],
      "payable": false,
      "stateMutability": "nonpayable",
      "type": "function"
    },
    {
      "constant": false,
      "inputs": [
        {
          "name": "index",
          "type": "uint256"
        }
      ],
      "name": "pop_sender",
      "outputs": [
        {
          "name": "",
          "type": "address"
        }
      ],
      "payable": false,
      "stateMutability": "nonpayable",
      "type": "function"
    },
    {
      "constant": false,
      "inputs": [
        {
          "name": "sender",
          "type": "address"
        },
        {
          "name": "drivers",
          "type": "address[]"
        }
      ],
      "name": "sort_drivers",
      "outputs": [],
      "payable": false,
      "stateMutability": "nonpayable",
      "type": "function"
    },
    {
      "constant": false,
      "inputs": [
        {
          "name": "sender",
          "type": "address"
        }
      ],
      "name": "pop_driver",
      "outputs": [
        {
          "name": "",
          "type": "address"
        }
      ],
      "payable": false,
      "stateMutability": "nonpayable",
      "type": "function"
    },
    {
      "constant": false,
      "inputs": [],
      "name": "matching",
      "outputs": [],
      "payable": false,
      "stateMutability": "nonpayable",
      "type": "function"
    },
    {
      "constant": false,
      "inputs": [],
      "name": "clear",
      "outputs": [],
      "payable": false,
      "stateMutability": "nonpayable",
      "type": "function"
    },
    {
      "constant": false,
      "inputs": [],
      "name": "check_matching",
      "outputs": [
        {
          "name": "",
          "type": "bool"
        }
      ],
      "payable": false,
      "stateMutability": "nonpayable",
      "type": "function"
    }
  ],
  "bytecode": "0x608060405234801561001057600080fd5b5060405160208061139b8339810180604052602081101561003057600080fd5b8101908080519060200190929190505050806000806101000a81548173ffffffffffffffffffffffffffffffffffffffff021916908373ffffffffffffffffffffffffffffffffffffffff1602179055505061130a806100916000396000f3fe608060405234801561001057600080fd5b50600436106100a95760003560e01c8063a31bf36211610071578063a31bf36214610280578063a7d9f7ea1461054b578063a8d509ff146105e4578063ae5ec2e914610643578063afc0691c1461064d578063c01497b114610691576100a9565b80633b19340d146100ae57806342e90c331461013257806352efea6e1461017c5780636c0cbea71461018657806380000278146101a8575b600080fd5b6100f0600480360360208110156100c457600080fd5b81019080803573ffffffffffffffffffffffffffffffffffffffff1690602001909291905050506106ff565b604051808273ffffffffffffffffffffffffffffffffffffffff1673ffffffffffffffffffffffffffffffffffffffff16815260200191505060405180910390f35b61013a61081d565b604051808273ffffffffffffffffffffffffffffffffffffffff1673ffffffffffffffffffffffffffffffffffffffff16815260200191505060405180910390f35b610184610842565b005b61018e610852565b604051808215151515815260200191505060405180910390f35b61027e600480360360408110156101be57600080fd5b81019080803573ffffffffffffffffffffffffffffffffffffffff169060200190929190803590602001906401000000008111156101fb57600080fd5b82018360208201111561020d57600080fd5b8035906020019184602083028401116401000000008311171561022f57600080fd5b919080806020026020016040519081016040528093929190818152602001838360200280828437600081840152601f19601f8201169050808301925050505050505091929192905050506108e8565b005b610549600480360361012081101561029757600080fd5b81019080803573ffffffffffffffffffffffffffffffffffffffff16906020019092919080359060200190929190803590602001906401000000008111156102de57600080fd5b8201836020820111156102f057600080fd5b8035906020019184600183028401116401000000008311171561031257600080fd5b91908080601f016020809104026020016040519081016040528093929190818152602001838380828437600081840152601f19601f8201169050808301925050505050505091929192908035906020019064010000000081111561037557600080fd5b82018360208201111561038757600080fd5b803590602001918460018302840111640100000000831117156103a957600080fd5b91908080601f016020809104026020016040519081016040528093929190818152602001838380828437600081840152601f19601f8201169050808301925050505050505091929192908035906020019064010000000081111561040c57600080fd5b82018360208201111561041e57600080fd5b8035906020019184600183028401116401000000008311171561044057600080fd5b91908080601f016020809104026020016040519081016040528093929190818152602001838380828437600081840152601f19601f820116905080830192505050505050509192919290803590602001906401000000008111156104a357600080fd5b8201836020820111156104b557600080fd5b803590602001918460018302840111640100000000831117156104d757600080fd5b91908080601f016020809104026020016040519081016040528093929190818152602001838380828437600081840152601f19601f82011690508083019250505050505050919291929080359060200190929190803515159060200190929190803590602001909291905050506109a3565b005b61058d6004803603602081101561056157600080fd5b81019080803573ffffffffffffffffffffffffffffffffffffffff169060200190929190505050610d34565b6040518080602001828103825283818151815260200191508051906020019060200280838360005b838110156105d05780820151818401526020810190506105b5565b505050509050019250505060405180910390f35b6105ec610e01565b6040518080602001828103825283818151815260200191508051906020019060200280838360005b8381101561062f578082015181840152602081019050610614565b505050509050019250505060405180910390f35b61064b610e8f565b005b61068f6004803603602081101561066357600080fd5b81019080803573ffffffffffffffffffffffffffffffffffffffff169060200190929190505050610fdc565b005b6106bd600480360360208110156106a757600080fd5b8101908080359060200190929190505050611045565b604051808273ffffffffffffffffffffffffffffffffffffffff1673ffffffffffffffffffffffffffffffffffffffff16815260200191505060405180910390f35b600080600260008473ffffffffffffffffffffffffffffffffffffffff1673ffffffffffffffffffffffffffffffffffffffff168152602001908152602001600020805490501161074f57600080fd5b6000600260008473ffffffffffffffffffffffffffffffffffffffff1673ffffffffffffffffffffffffffffffffffffffff16815260200190815260200160002060008154811061079c57fe5b9060005260206000200160009054906101000a900473ffffffffffffffffffffffffffffffffffffffff169050600260008473ffffffffffffffffffffffffffffffffffffffff1673ffffffffffffffffffffffffffffffffffffffff1681526020019081526020016000206000610814919061119f565b80915050919050565b6000809054906101000a900473ffffffffffffffffffffffffffffffffffffffff1681565b60016000610850919061119f565b565b60008060009050600060026000600160008154811061086d57fe5b9060005260206000200160009054906101000a900473ffffffffffffffffffffffffffffffffffffffff1673ffffffffffffffffffffffffffffffffffffffff1673ffffffffffffffffffffffffffffffffffffffff1681526020019081526020016000208054905011156108e157600190505b8091505090565b80600260008473ffffffffffffffffffffffffffffffffffffffff1673ffffffffffffffffffffffffffffffffffffffff168152602001908152602001600020908051906020019061093b9291906111c0565b507fb5db979661b319584306a47040cb8b47771e5b04ce98877980e81d619f19947882604051808273ffffffffffffffffffffffffffffffffffffffff1673ffffffffffffffffffffffffffffffffffffffff16815260200191505060405180910390a15050565b60008060009054906101000a900473ffffffffffffffffffffffffffffffffffffffff1673ffffffffffffffffffffffffffffffffffffffff1663fd9da4b78b8b8b8b8b8b8b8b8b6040518a63ffffffff1660e01b8152600401808a73ffffffffffffffffffffffffffffffffffffffff1673ffffffffffffffffffffffffffffffffffffffff168152602001898152602001806020018060200180602001806020018881526020018715151515815260200186815260200185810385528c818151815260200191508051906020019080838360005b83811015610a94578082015181840152602081019050610a79565b50505050905090810190601f168015610ac15780820380516001836020036101000a031916815260200191505b5085810384528b818151815260200191508051906020019080838360005b83811015610afa578082015181840152602081019050610adf565b50505050905090810190601f168015610b275780820380516001836020036101000a031916815260200191505b5085810383528a818151815260200191508051906020019080838360005b83811015610b60578082015181840152602081019050610b45565b50505050905090810190601f168015610b8d5780820380516001836020036101000a031916815260200191505b50858103825289818151815260200191508051906020019080838360005b83811015610bc6578082015181840152602081019050610bab565b50505050905090810190601f168015610bf35780820380516001836020036101000a031916815260200191505b509d5050505050505050505050505050602060405180830381600087803b158015610c1d57600080fd5b505af1158015610c31573d6000803e3d6000fd5b505050506040513d6020811015610c4757600080fd5b810190808051906020019092919050505090507f418607f513a820c697ec913079cc1b35f2f0cc0743590da4d87ad83be4e560bc8a82604051808373ffffffffffffffffffffffffffffffffffffffff1673ffffffffffffffffffffffffffffffffffffffff1681526020018281526020019250505060405180910390a17f1425b59c40c9ee9bc51172352af1cf9d6bdaad5b19844b520a69d695eb6106628a604051808273ffffffffffffffffffffffffffffffffffffffff1673ffffffffffffffffffffffffffffffffffffffff16815260200191505060405180910390a150505050505050505050565b6060600260008373ffffffffffffffffffffffffffffffffffffffff1673ffffffffffffffffffffffffffffffffffffffff168152602001908152602001600020805480602002602001604051908101604052809291908181526020018280548015610df557602002820191906000526020600020905b8160009054906101000a900473ffffffffffffffffffffffffffffffffffffffff1673ffffffffffffffffffffffffffffffffffffffff1681526020019060010190808311610dab575b50505050509050919050565b60606001805480602002602001604051908101604052809291908181526020018280548015610e8557602002820191906000526020600020905b8160009054906101000a900473ffffffffffffffffffffffffffffffffffffffff1673ffffffffffffffffffffffffffffffffffffffff1681526020019060010190808311610e3b575b5050505050905090565b60006001805490501180610f1d57506000600260006001600081548110610eb257fe5b9060005260206000200160009054906101000a900473ffffffffffffffffffffffffffffffffffffffff1673ffffffffffffffffffffffffffffffffffffffff1673ffffffffffffffffffffffffffffffffffffffff16815260200190815260200160002080549050115b610f2657600080fd5b6000610f326000611045565b90506000610f3f826106ff565b90507f6fde1c035c5f9101feed09ed3d1ac27f2f465b6907d263e99190dbdf81f92a868282604051808373ffffffffffffffffffffffffffffffffffffffff1673ffffffffffffffffffffffffffffffffffffffff1681526020018273ffffffffffffffffffffffffffffffffffffffff1673ffffffffffffffffffffffffffffffffffffffff1681526020019250505060405180910390a15050565b60018190806001815401808255809150509060018203906000526020600020016000909192909190916101000a81548173ffffffffffffffffffffffffffffffffffffffff021916908373ffffffffffffffffffffffffffffffffffffffff1602179055505050565b6000600180549050821061105857600080fd5b60006001838154811061106757fe5b9060005260206000200160009054906101000a900473ffffffffffffffffffffffffffffffffffffffff169050600183815481106110a157fe5b9060005260206000200160006101000a81549073ffffffffffffffffffffffffffffffffffffffff021916905560008390505b600180805490500381101561117f576001808201815481106110f257fe5b9060005260206000200160009054906101000a900473ffffffffffffffffffffffffffffffffffffffff166001828154811061112a57fe5b9060005260206000200160006101000a81548173ffffffffffffffffffffffffffffffffffffffff021916908373ffffffffffffffffffffffffffffffffffffffff16021790555080806001019150506110d4565b506001805480919060019003611195919061124a565b5080915050919050565b50805460008255906000526020600020908101906111bd9190611276565b50565b828054828255906000526020600020908101928215611239579160200282015b828111156112385782518260006101000a81548173ffffffffffffffffffffffffffffffffffffffff021916908373ffffffffffffffffffffffffffffffffffffffff160217905550916020019190600101906111e0565b5b509050611246919061129b565b5090565b815481835581811115611271578183600052602060002091820191016112709190611276565b5b505050565b61129891905b8082111561129457600081600090555060010161127c565b5090565b90565b6112db91905b808211156112d757600081816101000a81549073ffffffffffffffffffffffffffffffffffffffff0219169055506001016112a1565b5090565b9056fea165627a7a7230582000ded6fdc1511c030f797ba83cfaabadac3cebe5bd1a3efe7fc0bd59bce2fc0d0029",
  "source": "pragma solidity ^0.5.0;\r\nimport \"./Sender.sol\";\r\n\r\n\r\ncontract Transaction {\r\n    \r\n  Sender public Store;\r\n  \r\n  address[] private s; //寄送方\r\n\r\n  mapping(address => address[]) Drivers; //一個寄送方對多個和司機\r\n\r\n  event order_time(address, uint); //交易時間\r\n  event get_match(address, address); //取得配對合約\r\n  event search_drivers(address); //搜尋附近司機\r\n  event notice_drivers(address); //通知附近司機\r\n  \r\n  \r\n  constructor(address addr) public {\r\n    Store = Sender(addr);\r\n  }\r\n\r\n\r\n  function start_transaction(\r\n    address sender,  \r\n    uint _dTime,\r\n    string memory _dlStart,\r\n    string memory _dlEnd,\r\n    string memory _rName,\r\n    string memory _rContact,\r\n    uint _service,\r\n    bool _isUrgent,\r\n    uint _boxSize \r\n  ) public {\r\n      \r\n    uint time = Store.set_order_info(\r\n      sender,\r\n      _dTime,\r\n      _dlStart,\r\n      _dlEnd,\r\n      _rName,\r\n      _rContact,\r\n      _service,\r\n      _isUrgent,\r\n      _boxSize\r\n    );\r\n\r\n    emit order_time(sender, time);\r\n    emit search_drivers(sender);\r\n    \r\n  }\r\n  \r\n  function get_sender() public view returns(address[] memory) {\r\n    return s;\r\n  }\r\n\r\n  function get_drivers(address sender) public view returns(address[] memory) {\r\n    return Drivers[sender];\r\n  }\r\n\r\n  function push_sender(address sender) public {\r\n    s.push(sender);\r\n  }\r\n\r\n  function pop_sender(uint index) public returns(address) {\r\n\r\n    require(index < s.length);\r\n\r\n    address sender = s[index];\r\n\r\n    delete s[index];\r\n\r\n    for (uint i = index; i < s.length - 1; i++) {\r\n      s[i] = s[i + 1];\r\n    }\r\n\r\n    s.length--;\r\n\r\n    return sender;\r\n  }\r\n\r\n  function sort_drivers(address sender, address[] memory drivers) public {\r\n    \r\n    /*\r\n    這邊要增加排序的邏輯\r\n    */\r\n    \r\n    Drivers[sender] = drivers;\r\n\r\n    emit notice_drivers(sender);\r\n  }\r\n\r\n  function pop_driver(address sender) public returns(address) {\r\n    require(Drivers[sender].length > 0);\r\n\r\n    address driver = Drivers[sender][0]; //取得第一位\r\n\r\n    delete Drivers[sender];\r\n\r\n    return driver;\r\n  }\r\n\r\n  function matching() public { //配對第一位\r\n\r\n    require(s.length > 0 || Drivers[s[0]].length > 0);\r\n\r\n    address sender = pop_sender(0);\r\n    address driver = pop_driver(sender);\r\n\r\n    emit get_match(sender, driver);\r\n  }\r\n\r\n  function clear() public {\r\n    delete s;\r\n  }\r\n\r\n  function check_matching() public returns(bool) {\r\n    bool can_match = false;\r\n\r\n    if (Drivers[s[0]].length > 0) {\r\n      can_match = true;\r\n    }\r\n    return can_match;\r\n  }\r\n}",
  "sourcePath": "D:/Hongwei/BlockChain/Ethereum/Dapp/Crowd-Logistics-Platform/contracts/Transaction.sol",
  "compiler": {
    "name": "solc",
    "version": "0.5.8+commit.23d335f2.Emscripten.clang"
  },
  "schemaVersion": "3.0.16",
  "updatedAt": "2020-02-19T05:25:26.911Z",
  "devdoc": {
    "methods": {}
  },
  "userdoc": {
    "methods": {}
  }
}