{
  "contractName": "Driver",
  "abi": [
    {
      "inputs": [
        {
          "name": "sv",
          "type": "uint256"
        },
        {
          "name": "dst",
          "type": "string"
        },
        {
          "name": "det",
          "type": "string"
        },
        {
          "name": "rp",
          "type": "string"
        }
      ],
      "payable": false,
      "stateMutability": "nonpayable",
      "type": "constructor"
    },
    {
      "constant": true,
      "inputs": [],
      "name": "get_driver_info",
      "outputs": [
        {
          "name": "",
          "type": "uint256"
        },
        {
          "name": "",
          "type": "string"
        },
        {
          "name": "",
          "type": "string"
        },
        {
          "name": "",
          "type": "string"
        }
      ],
      "payable": false,
      "stateMutability": "view",
      "type": "function"
    }
  ],
  "bytecode": "0x608060405234801561001057600080fd5b506040516106e93803806106e98339810180604052608081101561003357600080fd5b8101908080519060200190929190805164010000000081111561005557600080fd5b8281019050602081018481111561006b57600080fd5b815185600182028301116401000000008211171561008857600080fd5b505092919060200180516401000000008111156100a457600080fd5b828101905060208101848111156100ba57600080fd5b81518560018202830111640100000000821117156100d757600080fd5b505092919060200180516401000000008111156100f357600080fd5b8281019050602081018481111561010957600080fd5b815185600182028301116401000000008211171561012657600080fd5b5050929190505050336000806101000a81548173ffffffffffffffffffffffffffffffffffffffff021916908373ffffffffffffffffffffffffffffffffffffffff16021790555083600181905550826002908051906020019061018b9291906101c3565b5081600390805190602001906101a29291906101c3565b5080600490805190602001906101b99291906101c3565b5050505050610268565b828054600181600116156101000203166002900490600052602060002090601f016020900481019282601f1061020457805160ff1916838001178555610232565b82800160010185558215610232579182015b82811115610231578251825591602001919060010190610216565b5b50905061023f9190610243565b5090565b61026591905b80821115610261576000816000905550600101610249565b5090565b90565b610472806102776000396000f3fe608060405234801561001057600080fd5b506004361061002b5760003560e01c8063f6360a8314610030575b600080fd5b610038610192565b60405180858152602001806020018060200180602001848103845287818151815260200191508051906020019080838360005b8381101561008657808201518184015260208101905061006b565b50505050905090810190601f1680156100b35780820380516001836020036101000a031916815260200191505b50848103835286818151815260200191508051906020019080838360005b838110156100ec5780820151818401526020810190506100d1565b50505050905090810190601f1680156101195780820380516001836020036101000a031916815260200191505b50848103825285818151815260200191508051906020019080838360005b83811015610152578082015181840152602081019050610137565b50505050905090810190601f16801561017f5780820380516001836020036101000a031916815260200191505b5097505050505050505060405180910390f35b600060608060606000809054906101000a900473ffffffffffffffffffffffffffffffffffffffff1673ffffffffffffffffffffffffffffffffffffffff163373ffffffffffffffffffffffffffffffffffffffff161461025b576040517f08c379a000000000000000000000000000000000000000000000000000000000815260040180806020018281038252600b8152602001807f4f6e6c792064726976657200000000000000000000000000000000000000000081525060200191505060405180910390fd5b600154600260036004828054600181600116156101000203166002900480601f0160208091040260200160405190810160405280929190818152602001828054600181600116156101000203166002900480156102f95780601f106102ce576101008083540402835291602001916102f9565b820191906000526020600020905b8154815290600101906020018083116102dc57829003601f168201915b50505050509250818054600181600116156101000203166002900480601f0160208091040260200160405190810160405280929190818152602001828054600181600116156101000203166002900480156103955780601f1061036a57610100808354040283529160200191610395565b820191906000526020600020905b81548152906001019060200180831161037857829003601f168201915b50505050509150808054600181600116156101000203166002900480601f0160208091040260200160405190810160405280929190818152602001828054600181600116156101000203166002900480156104315780601f1061040657610100808354040283529160200191610431565b820191906000526020600020905b81548152906001019060200180831161041457829003601f168201915b5050505050905093509350935093509091929356fea165627a7a723058208b9e52196faf78b45e64d88307e8b8057401b273a9c648166faf9b0b68b14eab0029",
  "source": "pragma solidity ^0.5.0;\r\n\r\n\r\ncontract Driver {\r\n    address driver;\r\n    uint service; //選擇服務\r\n    string delivery_start_time; //送貨地點\r\n    string delivery_end_time; //送貨終點\r\n    string regular_place; //收件人姓名\r\n\r\n\r\n    constructor(uint sv, string memory dst, string memory det, string memory rp) public {\r\n\r\n        driver = msg.sender;\r\n\r\n        service = sv;\r\n        delivery_start_time = dst;\r\n        delivery_end_time = det;\r\n        regular_place = rp;\r\n\r\n    }\r\n\r\n    function get_driver_info() public view returns (uint, string memory, string memory, string memory) {\r\n        require(msg.sender == driver, \"Only driver\");\r\n\r\n        return (service, delivery_start_time, delivery_end_time, regular_place);\r\n    }\r\n}",
  "sourcePath": "D:/Hongwei/BlockChain/Ethereum/Dapp/Crowd-Logistics-Platform/contracts/Driver.sol",
  "compiler": {
    "name": "solc",
    "version": "0.5.8+commit.23d335f2.Emscripten.clang"
  },
  "schemaVersion": "3.0.16",
  "updatedAt": "2019-10-17T04:16:38.215Z",
  "devdoc": {
    "methods": {}
  },
  "userdoc": {
    "methods": {}
  }
}