{
  "contractName": "Driver_Request",
  "abi": [
    {
      "constant": false,
      "inputs": [
        {
          "name": "sv",
          "type": "uint256"
        },
        {
          "name": "dst",
          "type": "string"
        },
        {
          "name": "det",
          "type": "string"
        },
        {
          "name": "rp",
          "type": "string"
        }
      ],
      "name": "set_driver_info",
      "outputs": [],
      "payable": false,
      "stateMutability": "nonpayable",
      "type": "function"
    },
    {
      "constant": true,
      "inputs": [],
      "name": "get_driver_info",
      "outputs": [
        {
          "name": "",
          "type": "uint256"
        },
        {
          "name": "",
          "type": "string"
        },
        {
          "name": "",
          "type": "string"
        },
        {
          "name": "",
          "type": "string"
        }
      ],
      "payable": false,
      "stateMutability": "view",
      "type": "function"
    }
  ],
  "bytecode": "0x608060405234801561001057600080fd5b506107d4806100206000396000f3fe608060405234801561001057600080fd5b50600436106100365760003560e01c806376b439c21461003b578063f6360a831461022e575b600080fd5b61022c6004803603608081101561005157600080fd5b81019080803590602001909291908035906020019064010000000081111561007857600080fd5b82018360208201111561008a57600080fd5b803590602001918460018302840111640100000000831117156100ac57600080fd5b91908080601f016020809104026020016040519081016040528093929190818152602001838380828437600081840152601f19601f8201169050808301925050505050505091929192908035906020019064010000000081111561010f57600080fd5b82018360208201111561012157600080fd5b8035906020019184600183028401116401000000008311171561014357600080fd5b91908080601f016020809104026020016040519081016040528093929190818152602001838380828437600081840152601f19601f820116905080830192505050505050509192919290803590602001906401000000008111156101a657600080fd5b8201836020820111156101b857600080fd5b803590602001918460018302840111640100000000831117156101da57600080fd5b91908080601f016020809104026020016040519081016040528093929190818152602001838380828437600081840152601f19601f820116905080830192505050505050509192919290505050610390565b005b610236610465565b60405180858152602001806020018060200180602001848103845287818151815260200191508051906020019080838360005b83811015610284578082015181840152602081019050610269565b50505050905090810190601f1680156102b15780820380516001836020036101000a031916815260200191505b50848103835286818151815260200191508051906020019080838360005b838110156102ea5780820151818401526020810190506102cf565b50505050905090810190601f1680156103175780820380516001836020036101000a031916815260200191505b50848103825285818151815260200191508051906020019080838360005b83811015610350578082015181840152602081019050610335565b50505050905090810190601f16801561037d5780820380516001836020036101000a031916815260200191505b5097505050505050505060405180910390f35b6103986106db565b6040518060800160405280868152602001858152602001848152602001838152509050806000803373ffffffffffffffffffffffffffffffffffffffff1673ffffffffffffffffffffffffffffffffffffffff168152602001908152602001600020600082015181600001556020820151816001019080519060200190610420929190610703565b50604082015181600201908051906020019061043d929190610703565b50606082015181600301908051906020019061045a929190610703565b509050505050505050565b600060608060606104746106db565b6000803373ffffffffffffffffffffffffffffffffffffffff1673ffffffffffffffffffffffffffffffffffffffff16815260200190815260200160002060405180608001604052908160008201548152602001600182018054600181600116156101000203166002900480601f0160208091040260200160405190810160405280929190818152602001828054600181600116156101000203166002900480156105605780601f1061053557610100808354040283529160200191610560565b820191906000526020600020905b81548152906001019060200180831161054357829003601f168201915b50505050508152602001600282018054600181600116156101000203166002900480601f0160208091040260200160405190810160405280929190818152602001828054600181600116156101000203166002900480156106025780601f106105d757610100808354040283529160200191610602565b820191906000526020600020905b8154815290600101906020018083116105e557829003601f168201915b50505050508152602001600382018054600181600116156101000203166002900480601f0160208091040260200160405190810160405280929190818152602001828054600181600116156101000203166002900480156106a45780601f10610679576101008083540402835291602001916106a4565b820191906000526020600020905b81548152906001019060200180831161068757829003601f168201915b5050505050815250509050806000015181602001518260400151836060015182925081915080905094509450945094505090919293565b6040518060800160405280600081526020016060815260200160608152602001606081525090565b828054600181600116156101000203166002900490600052602060002090601f016020900481019282601f1061074457805160ff1916838001178555610772565b82800160010185558215610772579182015b82811115610771578251825591602001919060010190610756565b5b50905061077f9190610783565b5090565b6107a591905b808211156107a1576000816000905550600101610789565b5090565b9056fea165627a7a72305820a97a7170a4419aa4c09404cd863f298d70bac5ff4a2b192376d43aca2df3b16c0029",
  "source": "pragma solidity ^0.5.0;\r\n\r\n\r\ncontract Driver_Request {\r\n\r\n    mapping(address => Driver_info) Driver;\r\n\r\n    struct Driver_info {\r\n        uint service; //選擇服務\r\n        string delivery_start_time; //送貨開始時間\r\n        string delivery_end_time; //送貨結束時間\r\n        string regular_place; //活動區域\r\n    }\r\n\r\n\r\n    function set_driver_info(uint sv, string memory dst, string memory det, string memory rp) public {\r\n\r\n        Driver_info memory info = Driver_info({\r\n            service: sv,\r\n            delivery_start_time: dst,\r\n            delivery_end_time: det,\r\n            regular_place: rp\r\n        });\r\n\r\n        Driver[msg.sender] = info;\r\n\r\n    }\r\n\r\n    function get_driver_info() public view returns (uint, string memory, string memory, string memory) {\r\n\r\n        Driver_info memory info = Driver[msg.sender];\r\n\r\n        return (info.service, info.delivery_start_time, info.delivery_end_time, info.regular_place);\r\n    }\r\n}",
  "sourcePath": "D:/Hongwei/BlockChain/Ethereum/Dapp/Crowd-Logistics-Platform/contracts/Driver_request.sol",
  "compiler": {
    "name": "solc",
    "version": "0.5.8+commit.23d335f2.Emscripten.clang"
  },
  "schemaVersion": "3.0.16",
  "updatedAt": "2019-11-09T14:53:23.737Z",
  "devdoc": {
    "methods": {}
  },
  "userdoc": {
    "methods": {}
  }
}