{
  "contractName": "Driver_Auth",
  "abi": [
    {
      "anonymous": false,
      "inputs": [
        {
          "indexed": false,
          "name": "valid",
          "type": "bool"
        },
        {
          "indexed": false,
          "name": "dl",
          "type": "string"
        },
        {
          "indexed": false,
          "name": "lp",
          "type": "string"
        }
      ],
      "name": "verification_status",
      "type": "event"
    },
    {
      "constant": false,
      "inputs": [
        {
          "name": "_name",
          "type": "string"
        },
        {
          "name": "_sex",
          "type": "uint256"
        },
        {
          "name": "btd",
          "type": "uint256"
        },
        {
          "name": "pn",
          "type": "string"
        },
        {
          "name": "_email",
          "type": "string"
        },
        {
          "name": "_cid",
          "type": "string"
        },
        {
          "name": "_psd",
          "type": "string"
        },
        {
          "name": "_psd_hint",
          "type": "string"
        }
      ],
      "name": "set_driver_data",
      "outputs": [],
      "payable": false,
      "stateMutability": "nonpayable",
      "type": "function"
    },
    {
      "constant": false,
      "inputs": [],
      "name": "verify_info",
      "outputs": [],
      "payable": false,
      "stateMutability": "nonpayable",
      "type": "function"
    },
    {
      "constant": true,
      "inputs": [
        {
          "name": "_cid",
          "type": "string"
        }
      ],
      "name": "verify_cid",
      "outputs": [
        {
          "name": "valid",
          "type": "bool"
        }
      ],
      "payable": false,
      "stateMutability": "view",
      "type": "function"
    },
    {
      "constant": true,
      "inputs": [
        {
          "name": "_email",
          "type": "string"
        }
      ],
      "name": "verify_email",
      "outputs": [
        {
          "name": "valid",
          "type": "bool"
        }
      ],
      "payable": false,
      "stateMutability": "view",
      "type": "function"
    },
    {
      "constant": true,
      "inputs": [
        {
          "name": "_psd",
          "type": "string"
        },
        {
          "name": "_psd_hint",
          "type": "string"
        }
      ],
      "name": "verify_psd",
      "outputs": [
        {
          "name": "valid",
          "type": "bool"
        }
      ],
      "payable": false,
      "stateMutability": "view",
      "type": "function"
    },
    {
      "constant": true,
      "inputs": [
        {
          "name": "btd",
          "type": "uint256"
        },
        {
          "name": "_cid",
          "type": "string"
        }
      ],
      "name": "get_driver_license",
      "outputs": [
        {
          "name": "dl",
          "type": "string"
        }
      ],
      "payable": false,
      "stateMutability": "view",
      "type": "function"
    },
    {
      "constant": true,
      "inputs": [
        {
          "name": "btd",
          "type": "uint256"
        },
        {
          "name": "_cid",
          "type": "string"
        }
      ],
      "name": "get_license_plate",
      "outputs": [
        {
          "name": "",
          "type": "string"
        }
      ],
      "payable": false,
      "stateMutability": "view",
      "type": "function"
    },
    {
      "constant": true,
      "inputs": [
        {
          "name": "_cid",
          "type": "string"
        },
        {
          "name": "dl",
          "type": "string"
        }
      ],
      "name": "is_insurance_valid",
      "outputs": [
        {
          "name": "",
          "type": "bool"
        }
      ],
      "payable": false,
      "stateMutability": "view",
      "type": "function"
    },
    {
      "constant": true,
      "inputs": [
        {
          "name": "btd",
          "type": "uint256"
        },
        {
          "name": "_cid",
          "type": "string"
        }
      ],
      "name": "is_drunk_driving",
      "outputs": [
        {
          "name": "valid",
          "type": "bool"
        }
      ],
      "payable": false,
      "stateMutability": "view",
      "type": "function"
    }
  ],
  "bytecode": "0x608060405234801561001057600080fd5b506117c0806100206000396000f3fe608060405234801561001057600080fd5b50600436106100935760003560e01c80633a77fbcd116100665780633a77fbcd1461057d578063462458ba146105875780637d6ebb4f1461066457806396f4544c14610a27578063f62a1d9214610b6557610093565b806310c6255d146100985780632818326b146101d65780632cbbc0d214610340578063364536d1146104aa575b600080fd5b61015b600480360360408110156100ae57600080fd5b8101908080359060200190929190803590602001906401000000008111156100d557600080fd5b8201836020820111156100e757600080fd5b8035906020019184600183028401116401000000008311171561010957600080fd5b91908080601f016020809104026020016040519081016040528093929190818152602001838380828437600081840152601f19601f820116905080830192505050505050509192919290505050610c38565b6040518080602001828103825283818151815260200191508051906020019080838360005b8381101561019b578082015181840152602081019050610180565b50505050905090810190601f1680156101c85780820380516001836020036101000a031916815260200191505b509250505060405180910390f35b610326600480360360408110156101ec57600080fd5b810190808035906020019064010000000081111561020957600080fd5b82018360208201111561021b57600080fd5b8035906020019184600183028401116401000000008311171561023d57600080fd5b91908080601f016020809104026020016040519081016040528093929190818152602001838380828437600081840152601f19601f820116905080830192505050505050509192919290803590602001906401000000008111156102a057600080fd5b8201836020820111156102b257600080fd5b803590602001918460018302840111640100000000831117156102d457600080fd5b91908080601f016020809104026020016040519081016040528093929190818152602001838380828437600081840152601f19601f820116905080830192505050505050509192919290505050610c78565b604051808215151515815260200191505060405180910390f35b6104906004803603604081101561035657600080fd5b810190808035906020019064010000000081111561037357600080fd5b82018360208201111561038557600080fd5b803590602001918460018302840111640100000000831117156103a757600080fd5b91908080601f016020809104026020016040519081016040528093929190818152602001838380828437600081840152601f19601f8201169050808301925050505050505091929192908035906020019064010000000081111561040a57600080fd5b82018360208201111561041c57600080fd5b8035906020019184600183028401116401000000008311171561043e57600080fd5b91908080601f016020809104026020016040519081016040528093929190818152602001838380828437600081840152601f19601f820116905080830192505050505050509192919290505050610c84565b604051808215151515815260200191505060405180910390f35b610563600480360360208110156104c057600080fd5b81019080803590602001906401000000008111156104dd57600080fd5b8201836020820111156104ef57600080fd5b8035906020019184600183028401116401000000008311171561051157600080fd5b91908080601f016020809104026020016040519081016040528093929190818152602001838380828437600081840152601f19601f820116905080830192505050505050509192919290505050610cbe565b604051808215151515815260200191505060405180910390f35b610585610ce3565b005b61064a6004803603604081101561059d57600080fd5b8101908080359060200190929190803590602001906401000000008111156105c457600080fd5b8201836020820111156105d657600080fd5b803590602001918460018302840111640100000000831117156105f857600080fd5b91908080601f016020809104026020016040519081016040528093929190818152602001838380828437600081840152601f19601f8201169050808301925050505050505091929192905050506115dd565b604051808215151515815260200191505060405180910390f35b610a25600480360361010081101561067b57600080fd5b810190808035906020019064010000000081111561069857600080fd5b8201836020820111156106aa57600080fd5b803590602001918460018302840111640100000000831117156106cc57600080fd5b91908080601f016020809104026020016040519081016040528093929190818152602001838380828437600081840152601f19601f82011690508083019250505050505050919291929080359060200190929190803590602001909291908035906020019064010000000081111561074357600080fd5b82018360208201111561075557600080fd5b8035906020019184600183028401116401000000008311171561077757600080fd5b91908080601f016020809104026020016040519081016040528093929190818152602001838380828437600081840152601f19601f820116905080830192505050505050509192919290803590602001906401000000008111156107da57600080fd5b8201836020820111156107ec57600080fd5b8035906020019184600183028401116401000000008311171561080e57600080fd5b91908080601f016020809104026020016040519081016040528093929190818152602001838380828437600081840152601f19601f8201169050808301925050505050505091929192908035906020019064010000000081111561087157600080fd5b82018360208201111561088357600080fd5b803590602001918460018302840111640100000000831117156108a557600080fd5b91908080601f016020809104026020016040519081016040528093929190818152602001838380828437600081840152601f19601f8201169050808301925050505050505091929192908035906020019064010000000081111561090857600080fd5b82018360208201111561091a57600080fd5b8035906020019184600183028401116401000000008311171561093c57600080fd5b91908080601f016020809104026020016040519081016040528093929190818152602001838380828437600081840152601f19601f8201169050808301925050505050505091929192908035906020019064010000000081111561099f57600080fd5b8201836020820111156109b157600080fd5b803590602001918460018302840111640100000000831117156109d357600080fd5b91908080601f016020809104026020016040519081016040528093929190818152602001838380828437600081840152601f19601f8201169050808301925050505050505091929192905050506115e9565b005b610aea60048036036040811015610a3d57600080fd5b810190808035906020019092919080359060200190640100000000811115610a6457600080fd5b820183602082011115610a7657600080fd5b80359060200191846001830284011164010000000083111715610a9857600080fd5b91908080601f016020809104026020016040519081016040528093929190818152602001838380828437600081840152601f19601f82011690508083019250505050505050919291929050505061168b565b6040518080602001828103825283818151815260200191508051906020019080838360005b83811015610b2a578082015181840152602081019050610b0f565b50505050905090810190601f168015610b575780820380516001836020036101000a031916815260200191505b509250505060405180910390f35b610c1e60048036036020811015610b7b57600080fd5b8101908080359060200190640100000000811115610b9857600080fd5b820183602082011115610baa57600080fd5b80359060200191846001830284011164010000000083111715610bcc57600080fd5b91908080601f016020809104026020016040519081016040528093929190818152602001838380828437600081840152601f19601f8201169050808301925050505050505091929192905050506116cb565b604051808215151515815260200191505060405180910390f35b60606040518060400160405280600681526020017f353739394b450000000000000000000000000000000000000000000000000000815250905092915050565b60006001905092915050565b60008083519050600083519050600882108015610ca15750600081145b15610cb157600092505050610cb8565b6001925050505b92915050565b60008082519050600a811015610cd8576000915050610cde565b60019150505b919050565b6000808054600181600116156101000203166002900490501415610d6f576040517f08c379a000000000000000000000000000000000000000000000000000000000815260040180806020018281038252600e8152602001807f6e616d6520697320656d7074792100000000000000000000000000000000000081525060200191505060405180910390fd5b600060038054600181600116156101000203166002900490501415610dfc576040517f08c379a00000000000000000000000000000000000000000000000000000000081526004018080602001828103825260168152602001807f70686f6e65206e756d62657220697320656d707479210000000000000000000081525060200191505060405180910390fd5b610ea260025460058054600181600116156101000203166002900480601f016020809104026020016040519081016040528092919081815260200182805460018160011615610100020316600290048015610e985780601f10610e6d57610100808354040283529160200191610e98565b820191906000526020600020905b815481529060010190602001808311610e7b57829003601f168201915b505050505061168b565b60089080519060200190610eb79291906116ef565b50610f5e60025460058054600181600116156101000203166002900480601f016020809104026020016040519081016040528092919081815260200182805460018160011615610100020316600290048015610f545780601f10610f2957610100808354040283529160200191610f54565b820191906000526020600020905b815481529060010190602001808311610f3757829003601f168201915b5050505050610c38565b60099080519060200190610f739291906116ef565b50600061101960048054600181600116156101000203166002900480601f01602080910402602001604051908101604052809291908181526020018280546001816001161561010002031660029004801561100f5780601f10610fe45761010080835404028352916020019161100f565b820191906000526020600020905b815481529060010190602001808311610ff257829003601f168201915b5050505050610cbe565b905060006110c060058054600181600116156101000203166002900480601f0160208091040260200160405190810160405280929190818152602001828054600181600116156101000203166002900480156110b65780601f1061108b576101008083540402835291602001916110b6565b820191906000526020600020905b81548152906001019060200180831161109957829003601f168201915b50505050506116cb565b9050600061120260068054600181600116156101000203166002900480601f01602080910402602001604051908101604052809291908181526020018280546001816001161561010002031660029004801561115d5780601f106111325761010080835404028352916020019161115d565b820191906000526020600020905b81548152906001019060200180831161114057829003601f168201915b505050505060078054600181600116156101000203166002900480601f0160208091040260200160405190810160405280929190818152602001828054600181600116156101000203166002900480156111f85780601f106111cd576101008083540402835291602001916111f8565b820191906000526020600020905b8154815290600101906020018083116111db57829003601f168201915b5050505050610c84565b9050600061134460058054600181600116156101000203166002900480601f01602080910402602001604051908101604052809291908181526020018280546001816001161561010002031660029004801561129f5780601f106112745761010080835404028352916020019161129f565b820191906000526020600020905b81548152906001019060200180831161128257829003601f168201915b505050505060088054600181600116156101000203166002900480601f01602080910402602001604051908101604052809291908181526020018280546001816001161561010002031660029004801561133a5780601f1061130f5761010080835404028352916020019161133a565b820191906000526020600020905b81548152906001019060200180831161131d57829003601f168201915b5050505050610c78565b905060006113ee60025460058054600181600116156101000203166002900480601f0160208091040260200160405190810160405280929190818152602001828054600181600116156101000203166002900480156113e45780601f106113b9576101008083540402835291602001916113e4565b820191906000526020600020905b8154815290600101906020018083116113c757829003601f168201915b50505050506115dd565b90508480156113fa5750835b80156114035750825b801561140c5750805b80156114155750815b15611571577fac1a5b313e84127ff7b016be162e67be6fc7ee298901b3adf53e149e82cd70b4600160086009604051808415151515815260200180602001806020018381038352858181546001816001161561010002031660029004815260200191508054600181600116156101000203166002900480156114d85780601f106114ad576101008083540402835291602001916114d8565b820191906000526020600020905b8154815290600101906020018083116114bb57829003601f168201915b505083810382528481815460018160011615610100020316600290048152602001915080546001816001161561010002031660029004801561155b5780601f106115305761010080835404028352916020019161155b565b820191906000526020600020905b81548152906001019060200180831161153e57829003601f168201915b50509550505050505060405180910390a16115d6565b7fac1a5b313e84127ff7b016be162e67be6fc7ee298901b3adf53e149e82cd70b4600060405180821515151581526020018060200180602001838103835260008152602001602001838103825260008152602001602001935050505060405180910390a15b5050505050565b60006001905092915050565b87600090805190602001906115ff9291906116ef565b50866001819055508560028190555084600390805190602001906116249291906116ef565b50836004908051906020019061163b9291906116ef565b5082600590805190602001906116529291906116ef565b5081600690805190602001906116699291906116ef565b5080600790805190602001906116809291906116ef565b505050505050505050565b60606040518060400160405280600a81526020017f4131323334353637383900000000000000000000000000000000000000000000815250905092915050565b60008082519050600a81146116e45760009150506116ea565b60019150505b919050565b828054600181600116156101000203166002900490600052602060002090601f016020900481019282601f1061173057805160ff191683800117855561175e565b8280016001018555821561175e579182015b8281111561175d578251825591602001919060010190611742565b5b50905061176b919061176f565b5090565b61179191905b8082111561178d576000816000905550600101611775565b5090565b9056fea165627a7a72305820a0b6e1c910dc909563e8524cc02efa03f4b64285008d61f910c6803010a845ed0029",
  "source": "pragma solidity ^0.5.0;\r\n// import \"github.com/provable-things/ethereum-api/provableAPI.sol\";\r\n\r\n\r\ncontract Driver_Auth {\r\n    string name; //姓名\r\n    uint sex; //生理性別\r\n    uint birthday; //生日\r\n    string phone_number; //電話號碼\r\n    string email; //電子郵件\r\n    string cid; //身分證字號\r\n    string psd; //密碼\r\n    string psd_hint; //密碼提示\r\n    string driver_license; //駕照號碼\r\n    string license_plate; //車牌號碼\r\n    // bool insurance_valid; //強制責任險有效性\r\n    bool drunk_driving; //酒醉紀錄\r\n    \r\n\r\n    event verification_status(bool valid, string dl, string lp); //資料是否驗證成功\r\n\r\n    function set_driver_data(\r\n        string memory _name, uint _sex, uint btd, string memory pn, string memory _email,\r\n        string memory _cid, string memory _psd, string memory _psd_hint) public {\r\n        \r\n        name = _name;\r\n        sex = _sex;\r\n        birthday = btd;\r\n        phone_number = pn;\r\n        email = _email;\r\n        cid = _cid;\r\n        psd = _psd;\r\n        psd_hint = _psd_hint;\r\n\r\n    }\r\n\r\n    function verify_info() public {\r\n        \r\n        require(bytes(name).length != 0, \"name is empty!\"); //姓名不為空\r\n        require(bytes(phone_number).length != 0, \"phone number is empty!\"); //電話不可為空\r\n\r\n        driver_license = get_driver_license(birthday, cid); //取得司機車牌\r\n        license_plate = get_license_plate(birthday, cid); //取得司機車牌\r\n\r\n        bool email_result = verify_email(email); //驗證信箱規則\r\n        bool cid_result = verify_cid(cid); //驗證身分證字號\r\n        bool psd_result = verify_psd(psd, psd_hint); //驗證密碼規則\r\n        bool insurance_valid = is_insurance_valid(cid, driver_license); //驗證強制責任險有效性\r\n        bool dd_result = is_drunk_driving(birthday, cid); //是否有酒駕紀錄\r\n        \r\n\r\n        if(email_result && cid_result && psd_result && dd_result && insurance_valid) {\r\n            emit verification_status(true, driver_license, license_plate); //回傳審核成功+駕照+車牌\r\n        } else {\r\n            emit verification_status(false,\"\",\"\"); //回傳審核失敗\r\n        }\r\n    }\r\n\r\n\r\n    function verify_cid(string memory _cid) public view returns (bool valid) {\r\n        uint len = bytes(_cid).length;\r\n        if(len != 10){\r\n            return false;\r\n        }\r\n        else {\r\n            return true;\r\n        }\r\n    }\r\n\r\n    function verify_email(string memory _email) public view returns(bool valid) {\r\n        uint len = bytes(_email).length;\r\n        if(len < 10){\r\n            return false;\r\n        }\r\n        else {\r\n            return true;\r\n        }\r\n    }\r\n\r\n    function verify_psd(string memory _psd, string memory _psd_hint) public view returns(bool valid) {\r\n        uint len1 = bytes(_psd).length;\r\n        uint len2 = bytes(_psd_hint).length;\r\n\r\n        if(len1 < 8 && len2 == 0){\r\n            return false;\r\n        }\r\n        else {\r\n            return true;\r\n        }\r\n    }\r\n\r\n    //使用身分證字號和生日即可查詢駕照\r\n    function get_driver_license(uint btd, string memory _cid) public view returns(\r\n            string memory dl ) {\r\n        \r\n        return \"A123456789\";\r\n    }\r\n\r\n    //使用身分證字號和生日即可查詢車牌\r\n    function get_license_plate(uint btd, string memory _cid) public view returns(\r\n            string memory ) {\r\n        \r\n        return \"5799KE\";\r\n    }\r\n\r\n    //使用身分證字號和車牌即可查詢強制責任險\r\n    function is_insurance_valid(string memory _cid, string memory dl) public view returns(\r\n            bool) {\r\n        \r\n        return true;\r\n    }\r\n\r\n\r\n    //使用身分證字號和生日即可查詢酒駕紀錄\r\n    function is_drunk_driving(uint btd, string memory _cid) public view returns(bool valid) {\r\n\r\n        return true;\r\n    }\r\n\r\n    \r\n}",
  "sourcePath": "D:/Hongwei/BlockChain/Ethereum/Dapp/Crowd-Logistics-Platform/contracts/Driver_Auth.sol",
  "compiler": {
    "name": "solc",
    "version": "0.5.8+commit.23d335f2.Emscripten.clang"
  },
  "schemaVersion": "3.0.16",
  "updatedAt": "2019-12-08T06:33:41.161Z",
  "devdoc": {
    "methods": {}
  },
  "userdoc": {
    "methods": {}
  }
}