{
  "contractName": "Sender",
  "abi": [
    {
      "inputs": [
        {
          "name": "dt",
          "type": "uint256"
        },
        {
          "name": "dsl",
          "type": "string"
        },
        {
          "name": "del",
          "type": "string"
        },
        {
          "name": "rn",
          "type": "string"
        },
        {
          "name": "rc",
          "type": "string"
        },
        {
          "name": "sv",
          "type": "uint256"
        },
        {
          "name": "isUr",
          "type": "bool"
        },
        {
          "name": "bs",
          "type": "uint256"
        }
      ],
      "payable": false,
      "stateMutability": "nonpayable",
      "type": "constructor"
    },
    {
      "constant": true,
      "inputs": [],
      "name": "get_order_info",
      "outputs": [
        {
          "name": "",
          "type": "uint256"
        },
        {
          "name": "",
          "type": "string"
        },
        {
          "name": "",
          "type": "string"
        },
        {
          "name": "",
          "type": "string"
        },
        {
          "name": "",
          "type": "string"
        },
        {
          "name": "",
          "type": "uint256"
        },
        {
          "name": "",
          "type": "bool"
        },
        {
          "name": "",
          "type": "uint256"
        }
      ],
      "payable": false,
      "stateMutability": "view",
      "type": "function"
    }
  ],
  "bytecode": "0x608060405234801561001057600080fd5b506040516108e83803806108e8833981018060405261010081101561003457600080fd5b8101908080519060200190929190805164010000000081111561005657600080fd5b8281019050602081018481111561006c57600080fd5b815185600182028301116401000000008211171561008957600080fd5b505092919060200180516401000000008111156100a557600080fd5b828101905060208101848111156100bb57600080fd5b81518560018202830111640100000000821117156100d857600080fd5b505092919060200180516401000000008111156100f457600080fd5b8281019050602081018481111561010a57600080fd5b815185600182028301116401000000008211171561012757600080fd5b5050929190602001805164010000000081111561014357600080fd5b8281019050602081018481111561015957600080fd5b815185600182028301116401000000008211171561017657600080fd5b5050929190602001805190602001909291908051906020019092919080519060200190929190505050336000806101000a81548173ffffffffffffffffffffffffffffffffffffffff021916908373ffffffffffffffffffffffffffffffffffffffff1602179055508760018190555086600590805190602001906101fc929190610277565b508560069080519060200190610213929190610277565b50846007908051906020019061022a929190610277565b508360089080519060200190610241929190610277565b508260028190555081600360006101000a81548160ff02191690831515021790555080600481905550505050505050505061031c565b828054600181600116156101000203166002900490600052602060002090601f016020900481019282601f106102b857805160ff19168380011785556102e6565b828001600101855582156102e6579182015b828111156102e55782518255916020019190600101906102ca565b5b5090506102f391906102f7565b5090565b61031991905b808211156103155760008160009055506001016102fd565b5090565b90565b6105bd8061032b6000396000f3fe608060405234801561001057600080fd5b506004361061002b5760003560e01c8063e2718a7914610030575b600080fd5b610038610217565b60405180898152602001806020018060200180602001806020018881526020018715151515815260200186815260200185810385528c818151815260200191508051906020019080838360005b838110156100a0578082015181840152602081019050610085565b50505050905090810190601f1680156100cd5780820380516001836020036101000a031916815260200191505b5085810384528b818151815260200191508051906020019080838360005b838110156101065780820151818401526020810190506100eb565b50505050905090810190601f1680156101335780820380516001836020036101000a031916815260200191505b5085810383528a818151815260200191508051906020019080838360005b8381101561016c578082015181840152602081019050610151565b50505050905090810190601f1680156101995780820380516001836020036101000a031916815260200191505b50858103825289818151815260200191508051906020019080838360005b838110156101d25780820151818401526020810190506101b7565b50505050905090810190601f1680156101ff5780820380516001836020036101000a031916815260200191505b509c5050505050505050505050505060405180910390f35b600060608060608060008060008060009054906101000a900473ffffffffffffffffffffffffffffffffffffffff1673ffffffffffffffffffffffffffffffffffffffff163373ffffffffffffffffffffffffffffffffffffffff16146102e6576040517f08c379a000000000000000000000000000000000000000000000000000000000815260040180806020018281038252600b8152602001807f4f6e6c792073656e64657200000000000000000000000000000000000000000081525060200191505060405180910390fd5b6001546005600660076008600254600360009054906101000a900460ff16600454868054600181600116156101000203166002900480601f01602080910402602001604051908101604052809291908181526020018280546001816001161561010002031660029004801561039c5780601f106103715761010080835404028352916020019161039c565b820191906000526020600020905b81548152906001019060200180831161037f57829003601f168201915b50505050509650858054600181600116156101000203166002900480601f0160208091040260200160405190810160405280929190818152602001828054600181600116156101000203166002900480156104385780601f1061040d57610100808354040283529160200191610438565b820191906000526020600020905b81548152906001019060200180831161041b57829003601f168201915b50505050509550848054600181600116156101000203166002900480601f0160208091040260200160405190810160405280929190818152602001828054600181600116156101000203166002900480156104d45780601f106104a9576101008083540402835291602001916104d4565b820191906000526020600020905b8154815290600101906020018083116104b757829003601f168201915b50505050509450838054600181600116156101000203166002900480601f0160208091040260200160405190810160405280929190818152602001828054600181600116156101000203166002900480156105705780601f1061054557610100808354040283529160200191610570565b820191906000526020600020905b81548152906001019060200180831161055357829003601f168201915b5050505050935097509750975097509750975097509750909192939495969756fea165627a7a72305820e9421029fbc84f54903d149f9a27dc8fa82e5dc1ac4b9605d942fac4ba30aded0029",
  "source": "pragma solidity ^0.5.0;\r\n\r\n\r\ncontract Sender {\r\n    address sender;\r\n    uint delivery_time; //寄送時間\r\n    uint service; //選擇服務\r\n    bool isUrgent; //急件是否\r\n    uint boxSize; //貨品大小\r\n    string delivery_start_location; //送貨地點\r\n    string delivery_end_location; //送貨終點\r\n    string recipient_name; //收件人姓名\r\n    string recipient_contact; //收件人聯絡方式\r\n\r\n\r\n    constructor(uint dt, string memory dsl, string memory del, string memory rn, string memory rc, uint sv, bool isUr, uint bs) public {\r\n\r\n        sender = msg.sender;\r\n\r\n        delivery_time = dt;\r\n        delivery_start_location = dsl;\r\n        delivery_end_location = del;\r\n        recipient_name = rn;\r\n        recipient_contact = rc;\r\n        service = sv;\r\n        isUrgent = isUr;\r\n        boxSize = bs;\r\n    }\r\n\r\n    function get_order_info() public view returns (uint, string memory, string memory, string memory, string memory, uint, bool, uint) {\r\n        require(msg.sender == sender, \"Only sender\");\r\n\r\n        return (delivery_time, delivery_start_location, delivery_end_location, recipient_name, recipient_contact, service, isUrgent, boxSize);\r\n    }\r\n}",
  "sourcePath": "D:/Hongwei/BlockChain/Ethereum/Dapp/Crowd-Logistics-Platform/contracts/Sender.sol",
  "compiler": {
    "name": "solc",
    "version": "0.5.8+commit.23d335f2.Emscripten.clang"
  },
  "schemaVersion": "3.0.16",
  "updatedAt": "2019-10-14T02:54:21.191Z",
  "devdoc": {
    "methods": {}
  },
  "userdoc": {
    "methods": {}
  }
}