{
  "contractName": "Sender_Request",
  "abi": [
    {
      "constant": false,
      "inputs": [
        {
          "name": "dt",
          "type": "uint256"
        },
        {
          "name": "dsl",
          "type": "string"
        },
        {
          "name": "del",
          "type": "string"
        },
        {
          "name": "rn",
          "type": "string"
        },
        {
          "name": "rc",
          "type": "string"
        },
        {
          "name": "sv",
          "type": "uint256"
        },
        {
          "name": "isUr",
          "type": "bool"
        },
        {
          "name": "bs",
          "type": "uint256"
        }
      ],
      "name": "set_order_info",
      "outputs": [],
      "payable": false,
      "stateMutability": "nonpayable",
      "type": "function"
    },
    {
      "constant": true,
      "inputs": [],
      "name": "get_order_info",
      "outputs": [
        {
          "name": "",
          "type": "uint256"
        },
        {
          "name": "",
          "type": "string"
        },
        {
          "name": "",
          "type": "string"
        },
        {
          "name": "",
          "type": "string"
        },
        {
          "name": "",
          "type": "string"
        },
        {
          "name": "",
          "type": "uint256"
        },
        {
          "name": "",
          "type": "bool"
        },
        {
          "name": "",
          "type": "uint256"
        }
      ],
      "payable": false,
      "stateMutability": "view",
      "type": "function"
    }
  ],
  "bytecode": "0x608060405234801561001057600080fd5b50610a9b806100206000396000f3fe608060405234801561001057600080fd5b50600436106100365760003560e01c8063676d62181461003b578063e2718a79146102e6575b600080fd5b6102e4600480360361010081101561005257600080fd5b81019080803590602001909291908035906020019064010000000081111561007957600080fd5b82018360208201111561008b57600080fd5b803590602001918460018302840111640100000000831117156100ad57600080fd5b91908080601f016020809104026020016040519081016040528093929190818152602001838380828437600081840152601f19601f8201169050808301925050505050505091929192908035906020019064010000000081111561011057600080fd5b82018360208201111561012257600080fd5b8035906020019184600183028401116401000000008311171561014457600080fd5b91908080601f016020809104026020016040519081016040528093929190818152602001838380828437600081840152601f19601f820116905080830192505050505050509192919290803590602001906401000000008111156101a757600080fd5b8201836020820111156101b957600080fd5b803590602001918460018302840111640100000000831117156101db57600080fd5b91908080601f016020809104026020016040519081016040528093929190818152602001838380828437600081840152601f19601f8201169050808301925050505050505091929192908035906020019064010000000081111561023e57600080fd5b82018360208201111561025057600080fd5b8035906020019184600183028401116401000000008311171561027257600080fd5b91908080601f016020809104026020016040519081016040528093929190818152602001838380828437600081840152601f19601f82011690508083019250505050505050919291929080359060200190929190803515159060200190929190803590602001909291905050506104cd565b005b6102ee610612565b60405180898152602001806020018060200180602001806020018881526020018715151515815260200186815260200185810385528c818151815260200191508051906020019080838360005b8381101561035657808201518184015260208101905061033b565b50505050905090810190601f1680156103835780820380516001836020036101000a031916815260200191505b5085810384528b818151815260200191508051906020019080838360005b838110156103bc5780820151818401526020810190506103a1565b50505050905090810190601f1680156103e95780820380516001836020036101000a031916815260200191505b5085810383528a818151815260200191508051906020019080838360005b83811015610422578082015181840152602081019050610407565b50505050905090810190601f16801561044f5780820380516001836020036101000a031916815260200191505b50858103825289818151815260200191508051906020019080838360005b8381101561048857808201518184015260208101905061046d565b50505050905090810190601f1680156104b55780820380516001836020036101000a031916815260200191505b509c5050505050505050505050505060405180910390f35b6104d5610983565b6040518061010001604052808a81526020018581526020018415158152602001838152602001898152602001888152602001878152602001868152509050806000803373ffffffffffffffffffffffffffffffffffffffff1673ffffffffffffffffffffffffffffffffffffffff168152602001908152602001600020600082015181600001556020820151816001015560408201518160020160006101000a81548160ff0219169083151502179055506060820151816003015560808201518160040190805190602001906105ac9291906109ca565b5060a08201518160050190805190602001906105c99291906109ca565b5060c08201518160060190805190602001906105e69291906109ca565b5060e08201518160070190805190602001906106039291906109ca565b50905050505050505050505050565b60006060806060806000806000610627610983565b6000803373ffffffffffffffffffffffffffffffffffffffff1673ffffffffffffffffffffffffffffffffffffffff1681526020019081526020016000206040518061010001604052908160008201548152602001600182015481526020016002820160009054906101000a900460ff1615151515815260200160038201548152602001600482018054600181600116156101000203166002900480601f0160208091040260200160405190810160405280929190818152602001828054600181600116156101000203166002900480156107435780601f1061071857610100808354040283529160200191610743565b820191906000526020600020905b81548152906001019060200180831161072657829003601f168201915b50505050508152602001600582018054600181600116156101000203166002900480601f0160208091040260200160405190810160405280929190818152602001828054600181600116156101000203166002900480156107e55780601f106107ba576101008083540402835291602001916107e5565b820191906000526020600020905b8154815290600101906020018083116107c857829003601f168201915b50505050508152602001600682018054600181600116156101000203166002900480601f0160208091040260200160405190810160405280929190818152602001828054600181600116156101000203166002900480156108875780601f1061085c57610100808354040283529160200191610887565b820191906000526020600020905b81548152906001019060200180831161086a57829003601f168201915b50505050508152602001600782018054600181600116156101000203166002900480601f0160208091040260200160405190810160405280929190818152602001828054600181600116156101000203166002900480156109295780601f106108fe57610100808354040283529160200191610929565b820191906000526020600020905b81548152906001019060200180831161090c57829003601f168201915b5050505050815250509050806000015181608001518260a001518360c001518460e0015185602001518660400151876060015186965085955084945083935098509850985098509850985098509850509091929394959697565b604051806101000160405280600081526020016000815260200160001515815260200160008152602001606081526020016060815260200160608152602001606081525090565b828054600181600116156101000203166002900490600052602060002090601f016020900481019282601f10610a0b57805160ff1916838001178555610a39565b82800160010185558215610a39579182015b82811115610a38578251825591602001919060010190610a1d565b5b509050610a469190610a4a565b5090565b610a6c91905b80821115610a68576000816000905550600101610a50565b5090565b9056fea165627a7a72305820eed076bf25b23aa87688160a0b75602da3eb4cb28e8cbbc40986d838c51eeb360029",
  "source": "pragma solidity ^0.5.0;\r\n\r\n\r\ncontract Sender_Request {\r\n    mapping(address => Order) User;\r\n    \r\n    struct Order {\r\n        uint delivery_time; //寄送時間\r\n        uint service; //選擇服務\r\n        bool isUrgent; //急件是否\r\n        uint boxSize; //貨品大小\r\n        string delivery_start_location; //送貨地點\r\n        string delivery_end_location; //送貨終點\r\n        string recipient_name; //收件人姓名\r\n        string recipient_contact; //收件人聯絡方式\r\n    }\r\n\r\n\r\n    function set_order_info(\r\n        uint dt,\r\n        string memory dsl,\r\n        string memory del,\r\n        string memory rn,\r\n        string memory rc,\r\n        uint sv,\r\n        bool isUr,\r\n        uint bs\r\n    ) public {\r\n\r\n        Order memory order = Order({\r\n            delivery_time: dt,\r\n            delivery_start_location: dsl,\r\n            delivery_end_location: del,\r\n            recipient_name: rn,\r\n            recipient_contact: rc,\r\n            service: sv,\r\n            isUrgent: isUr,\r\n            boxSize: bs\r\n        });\r\n        \r\n        User[msg.sender] = order;\r\n\r\n        \r\n    }\r\n\r\n    function get_order_info() public view returns (\r\n        uint, \r\n        string memory,\r\n        string memory,\r\n        string memory,\r\n        string memory,\r\n        uint,\r\n        bool,\r\n        uint\r\n    ) {\r\n\r\n        Order memory order = User[msg.sender];\r\n\r\n        return (\r\n            order.delivery_time,\r\n            order.delivery_start_location,\r\n            order.delivery_end_location,\r\n            order.recipient_name,\r\n            order.recipient_contact,\r\n            order.service,\r\n            order.isUrgent,\r\n            order.boxSize\r\n        );\r\n    }\r\n\r\n}",
  "sourcePath": "D:/Hongwei/BlockChain/Ethereum/Dapp/Crowd-Logistics-Platform/contracts/Sender_request.sol",
  "compiler": {
    "name": "solc",
    "version": "0.5.8+commit.23d335f2.Emscripten.clang"
  },
  "schemaVersion": "3.0.16",
  "updatedAt": "2019-11-08T15:43:54.641Z",
  "devdoc": {
    "methods": {}
  },
  "userdoc": {
    "methods": {}
  }
}