{
  "contractName": "Transaction",
  "abi": [
    {
      "anonymous": false,
      "inputs": [
        {
          "indexed": false,
          "name": "",
          "type": "address"
        },
        {
          "indexed": false,
          "name": "",
          "type": "address"
        }
      ],
      "name": "get_match",
      "type": "event"
    },
    {
      "constant": true,
      "inputs": [],
      "name": "get_sender",
      "outputs": [
        {
          "name": "",
          "type": "address[]"
        }
      ],
      "payable": false,
      "stateMutability": "view",
      "type": "function"
    },
    {
      "constant": true,
      "inputs": [],
      "name": "get_driver",
      "outputs": [
        {
          "name": "",
          "type": "address[]"
        }
      ],
      "payable": false,
      "stateMutability": "view",
      "type": "function"
    },
    {
      "constant": false,
      "inputs": [
        {
          "name": "sender",
          "type": "address"
        }
      ],
      "name": "push_sender",
      "outputs": [],
      "payable": false,
      "stateMutability": "nonpayable",
      "type": "function"
    },
    {
      "constant": false,
      "inputs": [
        {
          "name": "index",
          "type": "uint256"
        }
      ],
      "name": "pop_sender",
      "outputs": [
        {
          "name": "",
          "type": "address"
        }
      ],
      "payable": false,
      "stateMutability": "nonpayable",
      "type": "function"
    },
    {
      "constant": false,
      "inputs": [
        {
          "name": "driver",
          "type": "address"
        }
      ],
      "name": "push_driver",
      "outputs": [],
      "payable": false,
      "stateMutability": "nonpayable",
      "type": "function"
    },
    {
      "constant": false,
      "inputs": [
        {
          "name": "index",
          "type": "uint256"
        }
      ],
      "name": "pop_driver",
      "outputs": [
        {
          "name": "",
          "type": "address"
        }
      ],
      "payable": false,
      "stateMutability": "nonpayable",
      "type": "function"
    },
    {
      "constant": false,
      "inputs": [],
      "name": "matching",
      "outputs": [],
      "payable": false,
      "stateMutability": "nonpayable",
      "type": "function"
    }
  ],
  "bytecode": "0x608060405234801561001057600080fd5b5061090f806100206000396000f3fe608060405234801561001057600080fd5b506004361061007d5760003560e01c8063ae5ec2e91161005b578063ae5ec2e914610184578063afc0691c1461018e578063ba85a05c146101d2578063c01497b1146102405761007d565b80639ff3527a14610082578063a44b12c9146100c6578063a8d509ff14610125575b600080fd5b6100c46004803603602081101561009857600080fd5b81019080803573ffffffffffffffffffffffffffffffffffffffff1690602001909291905050506102ae565b005b6100ce610317565b6040518080602001828103825283818151815260200191508051906020019060200280838360005b838110156101115780820151818401526020810190506100f6565b505050509050019250505060405180910390f35b61012d6103a5565b6040518080602001828103825283818151815260200191508051906020019060200280838360005b83811015610170578082015181840152602081019050610155565b505050509050019250505060405180910390f35b61018c610433565b005b6101d0600480360360208110156101a457600080fd5b81019080803573ffffffffffffffffffffffffffffffffffffffff169060200190929190505050610575565b005b6101fe600480360360208110156101e857600080fd5b81019080803590602001909291905050506105de565b604051808273ffffffffffffffffffffffffffffffffffffffff1673ffffffffffffffffffffffffffffffffffffffff16815260200191505060405180910390f35b61026c6004803603602081101561025657600080fd5b8101908080359060200190929190505050610738565b604051808273ffffffffffffffffffffffffffffffffffffffff1673ffffffffffffffffffffffffffffffffffffffff16815260200191505060405180910390f35b60018190806001815401808255809150509060018203906000526020600020016000909192909190916101000a81548173ffffffffffffffffffffffffffffffffffffffff021916908373ffffffffffffffffffffffffffffffffffffffff1602179055505050565b6060600180548060200260200160405190810160405280929190818152602001828054801561039b57602002820191906000526020600020905b8160009054906101000a900473ffffffffffffffffffffffffffffffffffffffff1673ffffffffffffffffffffffffffffffffffffffff1681526020019060010190808311610351575b5050505050905090565b6060600080548060200260200160405190810160405280929190818152602001828054801561042957602002820191906000526020600020905b8160009054906101000a900473ffffffffffffffffffffffffffffffffffffffff1673ffffffffffffffffffffffffffffffffffffffff16815260200190600101908083116103df575b5050505050905090565b6000808054905011801561044c57506000600180549050115b6104be576040517f08c379a000000000000000000000000000000000000000000000000000000000815260040180806020018281038252600a8152602001807f4e6f204d656d626572210000000000000000000000000000000000000000000081525060200191505060405180910390fd5b60006104ca6000610738565b905060006104d860006105de565b90507f6fde1c035c5f9101feed09ed3d1ac27f2f465b6907d263e99190dbdf81f92a868282604051808373ffffffffffffffffffffffffffffffffffffffff1673ffffffffffffffffffffffffffffffffffffffff1681526020018273ffffffffffffffffffffffffffffffffffffffff1673ffffffffffffffffffffffffffffffffffffffff1681526020019250505060405180910390a15050565b60008190806001815401808255809150509060018203906000526020600020016000909192909190916101000a81548173ffffffffffffffffffffffffffffffffffffffff021916908373ffffffffffffffffffffffffffffffffffffffff1602179055505050565b600060018054905082106105f157600080fd5b60006001838154811061060057fe5b9060005260206000200160009054906101000a900473ffffffffffffffffffffffffffffffffffffffff1690506001838154811061063a57fe5b9060005260206000200160006101000a81549073ffffffffffffffffffffffffffffffffffffffff021916905560008390505b60018080549050038110156107185760018082018154811061068b57fe5b9060005260206000200160009054906101000a900473ffffffffffffffffffffffffffffffffffffffff16600182815481106106c357fe5b9060005260206000200160006101000a81548173ffffffffffffffffffffffffffffffffffffffff021916908373ffffffffffffffffffffffffffffffffffffffff160217905550808060010191505061066d565b50600180548091906001900361072e9190610892565b5080915050919050565b60008080549050821061074a57600080fd5b600080838154811061075857fe5b9060005260206000200160009054906101000a900473ffffffffffffffffffffffffffffffffffffffff1690506000838154811061079257fe5b9060005260206000200160006101000a81549073ffffffffffffffffffffffffffffffffffffffff021916905560008390505b60016000805490500381101561087257600060018201815481106107e557fe5b9060005260206000200160009054906101000a900473ffffffffffffffffffffffffffffffffffffffff166000828154811061081d57fe5b9060005260206000200160006101000a81548173ffffffffffffffffffffffffffffffffffffffff021916908373ffffffffffffffffffffffffffffffffffffffff16021790555080806001019150506107c5565b5060008054809190600190036108889190610892565b5080915050919050565b8154818355818111156108b9578183600052602060002091820191016108b891906108be565b5b505050565b6108e091905b808211156108dc5760008160009055506001016108c4565b5090565b9056fea165627a7a72305820c81612eb282b9b7a299aace1dbfe444e758a8ff4065ab6c8fe5971f8e47daea60029",
  "source": "pragma solidity ^0.5.0;\n\ncontract Transaction {\n\n    address[] private Sender;\n    address[] private Driver;\n    \n    event get_match(address, address);\n    \n    function get_sender() public view returns(address[] memory){\n        return Sender;\n    }\n    \n    function get_driver() public view returns(address[] memory){\n        return Driver;\n    }\n\n    function push_sender(address sender) public {\n        Sender.push(sender);\n    }\n\n    function pop_sender(uint index) public returns(address){\n        \n        require(index < Sender.length);\n        \n        address sender = Sender[index];\n        \n        delete Sender[index];\n        \n        for(uint i = index; i < Sender.length-1; i++) {\n            Sender[i] = Sender[i+1];\n        }\n        \n        Sender.length--;\n        \n        return sender;\n    }\n\n    function push_driver(address driver) public {\n        Driver.push(driver);\n    }\n\n    function pop_driver(uint index) public returns(address){\n        require(index < Driver.length);\n        \n        address driver = Driver[index];\n        \n        delete Driver[index];\n\n        for(uint i = index; i < Driver.length-1; i++) {\n            Driver[i] = Driver[i+1];\n        }\n        \n        Driver.length--;\n        \n        return driver;\n    }\n    \n    function matching() public {\n        require(Sender.length > 0 && Driver.length > 0, \"No Member!\");\n        \n        address sender = pop_sender(0);\n        address driver = pop_driver(0);\n        \n        emit get_match(sender, driver);\n        \n    }\n}",
  "sourcePath": "/Users/hongwei/Documents/BlockChain/Ethereum/Crowd-Logistics-Platform/contracts/Transaction.sol",
  "compiler": {
    "name": "solc",
    "version": "0.5.8+commit.23d335f2.Emscripten.clang"
  },
  "schemaVersion": "3.0.16",
  "updatedAt": "2019-11-05T09:41:49.655Z",
  "devdoc": {
    "methods": {}
  },
  "userdoc": {
    "methods": {}
  }
}