{
  "contractName": "Transaction",
  "abi": [
    {
      "anonymous": false,
      "inputs": [
        {
          "indexed": false,
          "name": "",
          "type": "address"
        },
        {
          "indexed": false,
          "name": "",
          "type": "address"
        }
      ],
      "name": "get_match",
      "type": "event"
    },
    {
      "constant": true,
      "inputs": [],
      "name": "get_sender",
      "outputs": [
        {
          "name": "",
          "type": "address[]"
        }
      ],
      "payable": false,
      "stateMutability": "view",
      "type": "function"
    },
    {
      "constant": true,
      "inputs": [
        {
          "name": "sender",
          "type": "address"
        }
      ],
      "name": "get_driver",
      "outputs": [
        {
          "name": "",
          "type": "address[]"
        }
      ],
      "payable": false,
      "stateMutability": "view",
      "type": "function"
    },
    {
      "constant": false,
      "inputs": [
        {
          "name": "sender",
          "type": "address"
        }
      ],
      "name": "push_sender",
      "outputs": [],
      "payable": false,
      "stateMutability": "nonpayable",
      "type": "function"
    },
    {
      "constant": false,
      "inputs": [
        {
          "name": "index",
          "type": "uint256"
        }
      ],
      "name": "pop_sender",
      "outputs": [
        {
          "name": "",
          "type": "address"
        }
      ],
      "payable": false,
      "stateMutability": "nonpayable",
      "type": "function"
    },
    {
      "constant": false,
      "inputs": [
        {
          "name": "sender",
          "type": "address"
        },
        {
          "name": "driver",
          "type": "address"
        }
      ],
      "name": "push_driver",
      "outputs": [],
      "payable": false,
      "stateMutability": "nonpayable",
      "type": "function"
    },
    {
      "constant": false,
      "inputs": [
        {
          "name": "sender",
          "type": "address"
        }
      ],
      "name": "pop_driver",
      "outputs": [
        {
          "name": "",
          "type": "address"
        }
      ],
      "payable": false,
      "stateMutability": "nonpayable",
      "type": "function"
    },
    {
      "constant": false,
      "inputs": [],
      "name": "matching",
      "outputs": [],
      "payable": false,
      "stateMutability": "nonpayable",
      "type": "function"
    },
    {
      "constant": false,
      "inputs": [],
      "name": "clear",
      "outputs": [],
      "payable": false,
      "stateMutability": "nonpayable",
      "type": "function"
    },
    {
      "constant": false,
      "inputs": [],
      "name": "check_matching",
      "outputs": [
        {
          "name": "",
          "type": "bool"
        }
      ],
      "payable": false,
      "stateMutability": "nonpayable",
      "type": "function"
    }
  ],
  "bytecode": "0x608060405234801561001057600080fd5b50610ad0806100206000396000f3fe608060405234801561001057600080fd5b50600436106100935760003560e01c8063ae5ec2e911610066578063ae5ec2e9146101a7578063afc0691c146101b1578063c0090ffb146101f5578063c01497b11461028e578063c23bd5ff146102fc57610093565b80633b19340d1461009857806352efea6e1461011c5780636c0cbea714610126578063a8d509ff14610148575b600080fd5b6100da600480360360208110156100ae57600080fd5b81019080803573ffffffffffffffffffffffffffffffffffffffff169060200190929190505050610360565b604051808273ffffffffffffffffffffffffffffffffffffffff1673ffffffffffffffffffffffffffffffffffffffff16815260200191505060405180910390f35b61012461047e565b005b61012e61048d565b604051808215151515815260200191505060405180910390f35b610150610522565b6040518080602001828103825283818151815260200191508051906020019060200280838360005b83811015610193578082015181840152602081019050610178565b505050509050019250505060405180910390f35b6101af6105b0565b005b6101f3600480360360208110156101c757600080fd5b81019080803573ffffffffffffffffffffffffffffffffffffffff1690602001909291905050506106fb565b005b6102376004803603602081101561020b57600080fd5b81019080803573ffffffffffffffffffffffffffffffffffffffff169060200190929190505050610764565b6040518080602001828103825283818151815260200191508051906020019060200280838360005b8381101561027a57808201518184015260208101905061025f565b505050509050019250505060405180910390f35b6102ba600480360360208110156102a457600080fd5b8101908080359060200190929190505050610831565b604051808273ffffffffffffffffffffffffffffffffffffffff1673ffffffffffffffffffffffffffffffffffffffff16815260200191505060405180910390f35b61035e6004803603604081101561031257600080fd5b81019080803573ffffffffffffffffffffffffffffffffffffffff169060200190929190803573ffffffffffffffffffffffffffffffffffffffff16906020019092919050505061098b565b005b600080600160008473ffffffffffffffffffffffffffffffffffffffff1673ffffffffffffffffffffffffffffffffffffffff16815260200190815260200160002080549050116103b057600080fd5b6000600160008473ffffffffffffffffffffffffffffffffffffffff1673ffffffffffffffffffffffffffffffffffffffff1681526020019081526020016000206000815481106103fd57fe5b9060005260206000200160009054906101000a900473ffffffffffffffffffffffffffffffffffffffff169050600160008473ffffffffffffffffffffffffffffffffffffffff1673ffffffffffffffffffffffffffffffffffffffff16815260200190815260200160002060006104759190610a32565b80915050919050565b60008061048b9190610a32565b565b60008060009050600060016000806000815481106104a757fe5b9060005260206000200160009054906101000a900473ffffffffffffffffffffffffffffffffffffffff1673ffffffffffffffffffffffffffffffffffffffff1673ffffffffffffffffffffffffffffffffffffffff16815260200190815260200160002080549050111561051b57600190505b8091505090565b606060008054806020026020016040519081016040528092919081815260200182805480156105a657602002820191906000526020600020905b8160009054906101000a900473ffffffffffffffffffffffffffffffffffffffff1673ffffffffffffffffffffffffffffffffffffffff168152602001906001019080831161055c575b5050505050905090565b60008080549050118061063c5750600060016000806000815481106105d157fe5b9060005260206000200160009054906101000a900473ffffffffffffffffffffffffffffffffffffffff1673ffffffffffffffffffffffffffffffffffffffff1673ffffffffffffffffffffffffffffffffffffffff16815260200190815260200160002080549050115b61064557600080fd5b60006106516000610831565b9050600061065e82610360565b90507f6fde1c035c5f9101feed09ed3d1ac27f2f465b6907d263e99190dbdf81f92a868282604051808373ffffffffffffffffffffffffffffffffffffffff1673ffffffffffffffffffffffffffffffffffffffff1681526020018273ffffffffffffffffffffffffffffffffffffffff1673ffffffffffffffffffffffffffffffffffffffff1681526020019250505060405180910390a15050565b60008190806001815401808255809150509060018203906000526020600020016000909192909190916101000a81548173ffffffffffffffffffffffffffffffffffffffff021916908373ffffffffffffffffffffffffffffffffffffffff1602179055505050565b6060600160008373ffffffffffffffffffffffffffffffffffffffff1673ffffffffffffffffffffffffffffffffffffffff16815260200190815260200160002080548060200260200160405190810160405280929190818152602001828054801561082557602002820191906000526020600020905b8160009054906101000a900473ffffffffffffffffffffffffffffffffffffffff1673ffffffffffffffffffffffffffffffffffffffff16815260200190600101908083116107db575b50505050509050919050565b60008080549050821061084357600080fd5b600080838154811061085157fe5b9060005260206000200160009054906101000a900473ffffffffffffffffffffffffffffffffffffffff1690506000838154811061088b57fe5b9060005260206000200160006101000a81549073ffffffffffffffffffffffffffffffffffffffff021916905560008390505b60016000805490500381101561096b57600060018201815481106108de57fe5b9060005260206000200160009054906101000a900473ffffffffffffffffffffffffffffffffffffffff166000828154811061091657fe5b9060005260206000200160006101000a81548173ffffffffffffffffffffffffffffffffffffffff021916908373ffffffffffffffffffffffffffffffffffffffff16021790555080806001019150506108be565b5060008054809190600190036109819190610a53565b5080915050919050565b600160008373ffffffffffffffffffffffffffffffffffffffff1673ffffffffffffffffffffffffffffffffffffffff1681526020019081526020016000208190806001815401808255809150509060018203906000526020600020016000909192909190916101000a81548173ffffffffffffffffffffffffffffffffffffffff021916908373ffffffffffffffffffffffffffffffffffffffff160217905550505050565b5080546000825590600052602060002090810190610a509190610a7f565b50565b815481835581811115610a7a57818360005260206000209182019101610a799190610a7f565b5b505050565b610aa191905b80821115610a9d576000816000905550600101610a85565b5090565b9056fea165627a7a7230582007460173cbddc83a18160d4b0fb56df8c87cd3690d3c59e040c6afd21a347e0c0029",
  "source": "pragma solidity ^0.5.0;\r\n\r\ncontract Transaction {\r\n\r\n    address[] private Sender; //寄送方\r\n    \r\n    mapping(address => address[]) Driver; //一個寄送方對多個和司機\r\n    \r\n    event get_match(address, address); //取得配對合約\r\n    \r\n    function get_sender() public view returns(address[] memory){\r\n        return Sender;\r\n    }\r\n    \r\n    function get_driver(address sender) public view returns(address[] memory){\r\n        return Driver[sender];\r\n    }\r\n\r\n    function push_sender(address sender) public {\r\n        Sender.push(sender);\r\n    }\r\n\r\n    function pop_sender(uint index) public returns(address){\r\n        \r\n        require(index < Sender.length);\r\n        \r\n        address sender = Sender[index];\r\n        \r\n        delete Sender[index];\r\n        \r\n        for(uint i = index; i < Sender.length-1; i++) {\r\n            Sender[i] = Sender[i+1];\r\n        }\r\n        \r\n        Sender.length--;\r\n        \r\n        return sender;\r\n    }\r\n\r\n    function push_driver(address sender, address driver) public {\r\n        Driver[sender].push(driver);\r\n    }\r\n\r\n    function pop_driver(address sender) public returns(address){\r\n        require(Driver[sender].length > 0);\r\n        \r\n        address driver = Driver[sender][0]; //取得第一位\r\n        \r\n        delete Driver[sender];\r\n        \r\n        return driver;\r\n    }\r\n    \r\n    function matching() public { //配對第一位\r\n\r\n        require(Sender.length > 0 || Driver[Sender[0]].length > 0);\r\n        \r\n        address sender = pop_sender(0);\r\n        address driver = pop_driver(sender);\r\n        \r\n        emit get_match(sender, driver);\r\n    }\r\n\r\n    function clear() public {\r\n        delete Sender;\r\n    }\r\n\r\n    function check_matching() public returns (bool) {\r\n        bool can_match = false;\r\n\r\n        if(Driver[Sender[0]].length > 0) {\r\n            can_match = true;\r\n        }\r\n        return can_match;\r\n    }\r\n}",
  "sourcePath": "D:/Hongwei/BlockChain/Ethereum/Dapp/Crowd-Logistics-Platform/contracts/Transaction.sol",
  "compiler": {
    "name": "solc",
    "version": "0.5.8+commit.23d335f2.Emscripten.clang"
  },
  "schemaVersion": "3.0.16",
  "updatedAt": "2019-12-08T06:33:41.174Z",
  "devdoc": {
    "methods": {}
  },
  "userdoc": {
    "methods": {}
  }
}