{
  "contractName": "Transaction",
  "abi": [
    {
      "anonymous": false,
      "inputs": [
        {
          "indexed": false,
          "name": "",
          "type": "address"
        },
        {
          "indexed": false,
          "name": "",
          "type": "address"
        }
      ],
      "name": "get_match",
      "type": "event"
    },
    {
      "constant": true,
      "inputs": [],
      "name": "get_sender",
      "outputs": [
        {
          "name": "",
          "type": "address[]"
        }
      ],
      "payable": false,
      "stateMutability": "view",
      "type": "function"
    },
    {
      "constant": true,
      "inputs": [
        {
          "name": "sender",
          "type": "address"
        }
      ],
      "name": "get_driver",
      "outputs": [
        {
          "name": "",
          "type": "address[]"
        }
      ],
      "payable": false,
      "stateMutability": "view",
      "type": "function"
    },
    {
      "constant": false,
      "inputs": [
        {
          "name": "sender",
          "type": "address"
        }
      ],
      "name": "push_sender",
      "outputs": [],
      "payable": false,
      "stateMutability": "nonpayable",
      "type": "function"
    },
    {
      "constant": false,
      "inputs": [
        {
          "name": "index",
          "type": "uint256"
        }
      ],
      "name": "pop_sender",
      "outputs": [
        {
          "name": "",
          "type": "address"
        }
      ],
      "payable": false,
      "stateMutability": "nonpayable",
      "type": "function"
    },
    {
      "constant": false,
      "inputs": [
        {
          "name": "sender",
          "type": "address"
        },
        {
          "name": "driver",
          "type": "address"
        }
      ],
      "name": "push_driver",
      "outputs": [],
      "payable": false,
      "stateMutability": "nonpayable",
      "type": "function"
    },
    {
      "constant": false,
      "inputs": [
        {
          "name": "sender",
          "type": "address"
        }
      ],
      "name": "pop_driver",
      "outputs": [
        {
          "name": "",
          "type": "address"
        }
      ],
      "payable": false,
      "stateMutability": "nonpayable",
      "type": "function"
    },
    {
      "constant": false,
      "inputs": [],
      "name": "matching",
      "outputs": [],
      "payable": false,
      "stateMutability": "nonpayable",
      "type": "function"
    }
  ],
  "bytecode": "0x608060405234801561001057600080fd5b50610a54806100206000396000f3fe608060405234801561001057600080fd5b506004361061007d5760003560e01c8063afc0691c1161005b578063afc0691c1461016f578063c0090ffb146101b3578063c01497b11461024c578063c23bd5ff146102ba5761007d565b80633b19340d14610082578063a8d509ff14610106578063ae5ec2e914610165575b600080fd5b6100c46004803603602081101561009857600080fd5b81019080803573ffffffffffffffffffffffffffffffffffffffff16906020019092919050505061031e565b604051808273ffffffffffffffffffffffffffffffffffffffff1673ffffffffffffffffffffffffffffffffffffffff16815260200191505060405180910390f35b61010e61043c565b6040518080602001828103825283818151815260200191508051906020019060200280838360005b83811015610151578082015181840152602081019050610136565b505050509050019250505060405180910390f35b61016d6104ca565b005b6101b16004803603602081101561018557600080fd5b81019080803573ffffffffffffffffffffffffffffffffffffffff16906020019092919050505061067f565b005b6101f5600480360360208110156101c957600080fd5b81019080803573ffffffffffffffffffffffffffffffffffffffff1690602001909291905050506106e8565b6040518080602001828103825283818151815260200191508051906020019060200280838360005b8381101561023857808201518184015260208101905061021d565b505050509050019250505060405180910390f35b6102786004803603602081101561026257600080fd5b81019080803590602001909291905050506107b5565b604051808273ffffffffffffffffffffffffffffffffffffffff1673ffffffffffffffffffffffffffffffffffffffff16815260200191505060405180910390f35b61031c600480360360408110156102d057600080fd5b81019080803573ffffffffffffffffffffffffffffffffffffffff169060200190929190803573ffffffffffffffffffffffffffffffffffffffff16906020019092919050505061090f565b005b600080600160008473ffffffffffffffffffffffffffffffffffffffff1673ffffffffffffffffffffffffffffffffffffffff168152602001908152602001600020805490501161036e57600080fd5b6000600160008473ffffffffffffffffffffffffffffffffffffffff1673ffffffffffffffffffffffffffffffffffffffff1681526020019081526020016000206000815481106103bb57fe5b9060005260206000200160009054906101000a900473ffffffffffffffffffffffffffffffffffffffff169050600160008473ffffffffffffffffffffffffffffffffffffffff1673ffffffffffffffffffffffffffffffffffffffff168152602001908152602001600020600061043391906109b6565b80915050919050565b606060008054806020026020016040519081016040528092919081815260200182805480156104c057602002820191906000526020600020905b8160009054906101000a900473ffffffffffffffffffffffffffffffffffffffff1673ffffffffffffffffffffffffffffffffffffffff1681526020019060010190808311610476575b5050505050905090565b600080805490501180156105575750600060016000806000815481106104ec57fe5b9060005260206000200160009054906101000a900473ffffffffffffffffffffffffffffffffffffffff1673ffffffffffffffffffffffffffffffffffffffff1673ffffffffffffffffffffffffffffffffffffffff16815260200190815260200160002080549050115b6105c9576040517f08c379a000000000000000000000000000000000000000000000000000000000815260040180806020018281038252600a8152602001807f4e6f204d656d626572210000000000000000000000000000000000000000000081525060200191505060405180910390fd5b60006105d560006107b5565b905060006105e28261031e565b90507f6fde1c035c5f9101feed09ed3d1ac27f2f465b6907d263e99190dbdf81f92a868282604051808373ffffffffffffffffffffffffffffffffffffffff1673ffffffffffffffffffffffffffffffffffffffff1681526020018273ffffffffffffffffffffffffffffffffffffffff1673ffffffffffffffffffffffffffffffffffffffff1681526020019250505060405180910390a15050565b60008190806001815401808255809150509060018203906000526020600020016000909192909190916101000a81548173ffffffffffffffffffffffffffffffffffffffff021916908373ffffffffffffffffffffffffffffffffffffffff1602179055505050565b6060600160008373ffffffffffffffffffffffffffffffffffffffff1673ffffffffffffffffffffffffffffffffffffffff1681526020019081526020016000208054806020026020016040519081016040528092919081815260200182805480156107a957602002820191906000526020600020905b8160009054906101000a900473ffffffffffffffffffffffffffffffffffffffff1673ffffffffffffffffffffffffffffffffffffffff168152602001906001019080831161075f575b50505050509050919050565b6000808054905082106107c757600080fd5b60008083815481106107d557fe5b9060005260206000200160009054906101000a900473ffffffffffffffffffffffffffffffffffffffff1690506000838154811061080f57fe5b9060005260206000200160006101000a81549073ffffffffffffffffffffffffffffffffffffffff021916905560008390505b6001600080549050038110156108ef576000600182018154811061086257fe5b9060005260206000200160009054906101000a900473ffffffffffffffffffffffffffffffffffffffff166000828154811061089a57fe5b9060005260206000200160006101000a81548173ffffffffffffffffffffffffffffffffffffffff021916908373ffffffffffffffffffffffffffffffffffffffff1602179055508080600101915050610842565b50600080548091906001900361090591906109d7565b5080915050919050565b600160008373ffffffffffffffffffffffffffffffffffffffff1673ffffffffffffffffffffffffffffffffffffffff1681526020019081526020016000208190806001815401808255809150509060018203906000526020600020016000909192909190916101000a81548173ffffffffffffffffffffffffffffffffffffffff021916908373ffffffffffffffffffffffffffffffffffffffff160217905550505050565b50805460008255906000526020600020908101906109d49190610a03565b50565b8154818355818111156109fe578183600052602060002091820191016109fd9190610a03565b5b505050565b610a2591905b80821115610a21576000816000905550600101610a09565b5090565b9056fea165627a7a723058205597eecd2819815fa0be9e565909b26075dc7e92038644bb4a2c2ea9cef7c18a0029",
  "source": "pragma solidity ^0.5.0;\r\n\r\ncontract Transaction {\r\n\r\n    address[] private Sender; //寄送方\r\n    \r\n    mapping(address => address[]) Driver; //一個寄送方對多個和司機\r\n    \r\n    event get_match(address, address); //取得配對合約\r\n    \r\n    function get_sender() public view returns(address[] memory){\r\n        return Sender;\r\n    }\r\n    \r\n    function get_driver(address sender) public view returns(address[] memory){\r\n        return Driver[sender];\r\n    }\r\n\r\n    function push_sender(address sender) public {\r\n        Sender.push(sender);\r\n    }\r\n\r\n    function pop_sender(uint index) public returns(address){\r\n        \r\n        require(index < Sender.length);\r\n        \r\n        address sender = Sender[index];\r\n        \r\n        delete Sender[index];\r\n        \r\n        for(uint i = index; i < Sender.length-1; i++) {\r\n            Sender[i] = Sender[i+1];\r\n        }\r\n        \r\n        Sender.length--;\r\n        \r\n        return sender;\r\n    }\r\n\r\n    function push_driver(address sender, address driver) public {\r\n        Driver[sender].push(driver);\r\n    }\r\n\r\n    function pop_driver(address sender) public returns(address){\r\n        require(Driver[sender].length > 0);\r\n        \r\n        address driver = Driver[sender][0]; //取得第一位\r\n        \r\n        delete Driver[sender];\r\n        \r\n        return driver;\r\n    }\r\n    \r\n    function matching() public {\r\n        require(Sender.length > 0 && Driver[Sender[0]].length > 0, \"No Member!\");\r\n        \r\n        address sender = pop_sender(0);\r\n        address driver = pop_driver(sender);\r\n        \r\n        emit get_match(sender, driver);\r\n        \r\n    }\r\n}",
  "sourcePath": "D:/Hongwei/BlockChain/Ethereum/Dapp/Crowd-Logistics-Platform/contracts/Transaction.sol",
  "compiler": {
    "name": "solc",
    "version": "0.5.8+commit.23d335f2.Emscripten.clang"
  },
  "schemaVersion": "3.0.16",
  "updatedAt": "2019-11-08T15:43:54.648Z",
  "devdoc": {
    "methods": {}
  },
  "userdoc": {
    "methods": {}
  }
}